:1000000000000220F120000027210000292100002B
:100010002B2100002D2100002F21000025210000B0
:10002000252100002521000025210000053E0000BB
:100030003321000025210000733E0000AB3E00008C
:10004000392100003B2100003D2100003F2100003C
:10005000412100004321000045210000472100000C
:10006000492100004B2100004D2100004F210000DC
:1000700051210000532100005521000057210000AC
:10008000592100005B2100005D2100005F2100007C
:10009000612100006321000065210000672100004C
:1000A000692100006B2100006D2100006F2100001C
:1000B00071210000732100007521000077210000EC
:1000C000792100007B2100007D2100007F210000BC
:1000D0008121000083210000852100000000000034
:1000E0000000000000000000000000000000000010
:1000F0000000000000000000000000000000000000
:1001000010B5054C237833B9044810B10448AFF357
:1001100000800121217010BD880000200000000037
:100120005C45000008B5064B1BB106480649AFF315
:1001300000800648016811B1054A02B1904708BD28
:10014000000000005C4500008C00002088000020BA
:1001500000000000154B002B08BF134B9D46A3F574
:10016000803A00218B460F461348144A121A03F0B6
:100170004BFF0F4B002B00D098470E4B002B00D0AD
:1001800098470020002104460D4600200C4900221B
:10019000002303F0D7FE03F011FF2046294600F0AC
:1001A000FBF803F0DFFE00BF0000080000000220A3
:1001B000000000000102000088000020900C0020D8
:1001C000913F000080B400AF4FF46D43CEF20003C6
:1001D0004FF46D42CEF20002126922F004021A615D
:1001E00030BFBD4680BC704780B500AFFFF7EAFF67
:1001F000FCE700BF80B483B000AF7860FEE700BFCB
:100200000020002104460D46084803F0A5FE03F037
:10021000D5FE2046294602F0A9FA0548002102F041
:1002200061FB02F0B9FA03F09DFE0000913F00006F
:100230000000002080B582B000AF48F2FC13C0F689
:10024000E0731B687B603B46184601F0C9FC7B6885
:100250004FEA1363102B10D17B78032B0DD148F29A
:10026000C003C4F20C0348F2C002C4F20C021268CC
:1002700022F0500242F010021A6007F10807BD4652
:1002800080BD00BF80B586B000AF786000E000BFE1
:1002900040F60043C2F200031B6807F10802104653
:1002A00019464FF0FF3202F089FDBB68102BEED1EA
:1002B000FB687B61786901F099FE40F67033C2F209
:1002C00000031B681846796902F07AFCDFE700BF7B
:1002D00080B584B000AF786040F2B803C2F200038A
:1002E0001B6803F1010303F00F0240F2B803C2F2EE
:1002F00000031A6040F2B803C2F200031B681846FC
:1003000002F094F840F67033C2F200031B681846FE
:1003100002F03EFCF86040F2B803C2F200031B6832
:10032000092B02DD4FF0310301E04FF03003FA6892
:10033000137040F2B803C2F20003196846F2676313
:10034000C6F2666383FB01234FEAA3024FEAE1731F
:10035000D21A13464FEA83039B184FEA4303CA1A83
:10036000D3B203F13003DAB2FB685A70FB684FF086
:1003700000029A7040F60043C2F200031A68FB685C
:10038000104619464FF0FF3202F0F8FC4FF4FA70B5
:1003900002F020FBA0E700BF80B500AFFFF74AFFE7
:1003A00002F0E4F902F024F902F002F84FF0000044
:1003B00001F0AAFD44F22430C0F2000002F0BAFBC2
:1003C000024640F67033C2F200031A6044F2303045
:1003D000C0F200004FF0000102F0A2FC024640F61D
:1003E0000043C2F200031A6044F24830C0F2000039
:1003F0004FF0000102F076FA44F23830C0F200000B
:100400004FF0000102F06EFA02F0C6F94FF000035F
:10041000184680BD80B487B000AFF860B9607A60DC
:10042000FB6803F104734FEAC302BB68D3184FEAB9
:1004300083037B617B697A681A6007F11C07BD46FC
:1004400080BC704780B483B000AF4FF00003C4F2AB
:100450000C035B687B607B6803F00703052B19D8EE
:100460004FF0010202FA03F303F02C02002A0AD132
:1004700003F01303002B0DD07B6823F0070343F038
:1004800004037B6006E07B6823F0070343F0050369
:100490007B6000BF4FF00003C4F20C037A685A601F
:1004A00007F10C07BD4680BC704700BF90B486B012
:1004B00000AF78607B683B613B69B3FA83F4FC6012
:1004C000FB68DBB2C3F11F037B617B69184607F150
:1004D0001807BD4690BC704780B483B000AF786009
:1004E0007B684FF0010202FA03F3184607F10C078C
:1004F000BD4680BC704700BF80B485B000AF786057
:100500004FF00003C4F20C035B68FB607A684FF4A1
:100510009043C0F2E8139A4214D9FB6803F0070332
:10052000A3F10203012B06D8FB6823F0070343F075
:100530000503FB6006E0FB6823F0070343F00403B8
:10054000FB6000BF7A684FF41053C0F2F4039A4284
:1005500021D97A684FF49043C0F2E8139A421AD82E
:10056000FB6803F00703052B0ED84FF0010202FAD7
:1005700003F303F02C03002B06D0FB6823F00703E2
:1005800043F00303FB6006E0FB6823F0070343F03E
:100590000103FB6000BF7A684FF41053C0F2F4030C
:1005A0009A4218D8FB6803F00703052B0ED84FF0CA
:1005B000010202FA03F303F02C03002B06D0FB68C0
:1005C00023F0070343F00203FB6004E0FB6823F021
:1005D0000703FB6000BF4FF00003C4F20C03FA688E
:1005E0005A6007F11407BD4680BC704780B483B0E1
:1005F00000AF78604FF40043C4F20C035B6D03F06E
:100600000103002B0AD100BF4FF40043C4F20C03D6
:100610001A6D7B681340002BF6D100E000BF07F194
:100620000C07BD4680BC704790B585B000AF7860C0
:100630007B684FEA131303F00F03BB60BB6803F141
:10064000FF33042B00F2CA8001A252F823F000BF4E
:100650007F06000099060000B30600007F07000037
:10066000650600004FF40043C4F20C031B6803F45A
:10067000E0334FEA933303F10103FB60B2E04FF440
:100680000043C4F20C039B6803F00F03FB60F8689F
:10069000FFF722FFF860A5E04FF40043C4F20C031B
:1006A0005B6803F00F03FB60F868FFF715FFF86065
:1006B00098E07B6842F23042C0F20A02934228D0AE
:1006C00042F23042C0F20A02934206D841F230426E
:1006D000C0F2080293420DD04CE04FF03002C0F25D
:1006E0000C02934224D04FF48662C0F2100293426F
:1006F00033D03FE04FF40043C4F20C039B6E03F091
:10070000F0034FEA1313FB60F868FFF7E5FEF860AB
:1007100034E04FF40043C4F20C039B6E03F47063A7
:100720004FEA1323FB60F868FFF7D6FEF86025E078
:100730004FF40043C4F20C039B6E03F440534FEAA2
:1007400013344FF01000FFF7B1FE0346E318FB60CF
:10075000F868FFF7C1FEF86010E04FF40043C4F200
:100760000C039B6E03F00303FB60F868FFF7B4FE15
:10077000F86003E04FF00103FB6000BF32E07A68ED
:100780004FF4A863C0F214039A4206D04FF4AA5360
:10079000C0F216039A420DD01BE04FF40043C4F29E
:1007A0000C031B6F03F00303FB60F868FFF794FE74
:1007B000F86012E04FF40043C4F20C031B6F03F027
:1007C00030034FEA1313FB60F868FFF785FEF8600B
:1007D00003E04FF00103FB6000BF03E04FF00103B3
:1007E000FB6000BFFB68184607F11407BD4690BDCB
:1007F000B0B584B000AF786039607B684FEA1313FE
:1008000003F00F03FB60FB6803F1FF33042B00F2DE
:100810005D8101A252F823F06308000089080000FE
:10082000370900004D0A00002D080000FFF70AFEFE
:100830004FF40043C4F20C034FF40042C4F20C0224
:10084000126822F4E0313A6802F1FF324FEA823254
:100850000A431A6001F0A6FCB860B868FFF74CFEC6
:1008600035E13868FFF722FE38604FF40043C4F2E8
:100870000C034FF40042C4F20C02926822F00F0104
:100880003A680A439A6022E1FFF7DCFD4FF051001D
:1008900000F0B4F90346042B0BD101F037FD0246FA
:1008A0003B68B2FBF3F24FF49043C0F2E8139A4274
:1008B00014D84FF40040C4F20C004FF01E014FF06A
:1008C0000002FFF7A7FD48F20400C4F20C004FF04D
:1008D00008014FF00002FFF79DFD13E04FF40040C8
:1008E000C4F20C004FF01E014FF00102FFF792FD21
:1008F00048F20400C4F20C004FF008014FF001026E
:10090000FFF788FD3868FFF7D1FD38604FF40043EA
:10091000C4F20C034FF40042C4F20C02526822F0FD
:100920000F013A680A435A6001F03CFCB860B868AD
:10093000FFF7E2FDCBE07B6842F23042C0F20A02F0
:10094000934232D042F23042C0F20A02934206D8B9
:1009500041F23042C0F2080293420DD074E04FF0F1
:100960003002C0F20C02934238D04FF48662C0F2DB
:100970001002934251D067E04FF00400FFF736FEBB
:100980003868FFF793FD38604FF40043C4F20C035E
:100990004FF40042C4F20C02926E22F0F0013A6869
:1009A0004FEA02120A439A664FE04FF00400FFF745
:1009B0001DFE3868FFF77AFD38604FF40043C4F23B
:1009C0000C034FF40042C4F20C02926E22F47061E8
:1009D0003A684FEA02220A439A6636E04FF0040072
:1009E000FFF704FE3868FFF761FD38604FF40044FC
:1009F000C4F20C044FF40043C4F20C039B6E23F4C6
:100A000040554FF01000FFF751FD03463A68D31AE6
:100A10004FEA03332B43A36617E04FF00400FFF7C0
:100A2000E5FD3868FFF742FD38604FF40043C4F23B
:100A30000C034FF40042C4F20C02926E22F0030148
:100A40003A680A439A6600E000BF40E07A684FF4D3
:100A5000A863C0F214039A4206D04FF4AA53C0F21E
:100A600016039A4217D02FE04FF04000FFF7BEFD6B
:100A70003868FFF71BFD38604FF40043C4F20C03E5
:100A80004FF40042C4F20C02126F22F003013A68E4
:100A90000A431A6719E04FF04000FFF7A7FD3868D6
:100AA000FFF704FD38604FF40043C4F20C034FF429
:100AB0000042C4F20C02126F22F030013A684FEA91
:100AC00002120A431A6700E000BF00E000BF07F10E
:100AD0001007BD46B0BD00BF90B587B000AF7860CD
:100AE0000B46FB704FF000033B617B684FEA13231A
:100AF00003F00F0303F1FF33052B7AD801A252F85C
:100B000023F000BF1D0B0000290B0000350B000077
:100B10009B0B0000AD0B0000BF0B000048F2080368
:100B2000C4F20C037B6151E048F24403C4F20C03AD
:100B30007B614BE048F24003C4F20C037B614FF051
:100B4000510000F05BF80346042B3ED101F0DEFBC0
:100B500004464FF02000C0F20400FFF765FD034695
:100B6000B4FBF3F24FF49043C0F2E8139A422CD94D
:100B70004FF40040C4F20C004FF01E014FF0010290
:100B8000FFF748FC48F20400C4F20C004FF00801E3
:100B90004FF00102FFF73EFC17E048F25803C4F2A1
:100BA0000C037B614FF001033B610FE048F26003EF
:100BB000C4F20C037B614FF010033B6106E048F286
:100BC0007803C4F20C037B6100E000BF7B684FEA4E
:100BD000133303F01F03FB603B69002B02D038691D
:100BE000FFF704FDFB787869F9681A46FFF712FCF5
:100BF00000E000BF07F11C07BD4690BD80B485B082
:100C000000AF78604FF00103FB737B6803F00F03C4
:100C1000BB60BB6803F1FF33042B00F2B68001A276
:100C200052F823F0390C00007D0C0000CD0C0000C0
:100C30001D0D0000490D00004FF40043C4F20C03E9
:100C4000DB6A03F47053B3F5805F0AD0B3F5005F3D
:100C500003D0B3F5006F08D00BE04FF00203FB7335
:100C60000BE04FF00303FB7307E04FF00403FB734B
:100C700003E04FF00503FB7300BF8AE04FF400432D
:100C8000C4F20C039B6A03F00303022B07D0032B6F
:100C900009D0012B0BD14FF00303FB7315E04FF08C
:100CA0000203FB7311E04FF00603FB730DE04FF4FA
:100CB0000043C4F20C039B6A03F48033002B03D07F
:100CC0004FF00903FB7300E000BF62E04FF4004304
:100CD000C4F20C039B6A03F00C03082B07D00C2B07
:100CE00009D0042B0BD14FF00303FB7315E04FF039
:100CF0000203FB7311E04FF00603FB730DE04FF4AA
:100D00000043C4F20C039B6A03F48013002B03D04E
:100D10004FF00903FB7300E000BF3AE04FF40043DB
:100D2000C4F20C031B6803F08053002B03D0B3F113
:100D3000805F04D007E04FF00703FB7303E04FF040
:100D40000803FB7300BF24E04FF40043C4F20C031C
:100D5000DB6A03F46033B3F5803F09D0B3F5003F9D
:100D60000AD0B3F5004F0BD14FF00803FB730BE033
:100D70004FF00203FB7307E04FF00303FB7303E044
:100D80004FF00103FB7300BF03E04FF00003FB7360
:100D900000BFFB7B184607F11407BD4680BC7047B7
:100DA00080B588B000AF78600B46FB704FF003034E
:100DB000FB614FF00303FB764FF000037B617B6820
:100DC00003F00F03FB60FB6803F1FF33042B00F219
:100DD000A48101A252F823F0ED0D0000030F0000E2
:100DE000030F0000371000007B100000FB78A3F118
:100DF0000203072B00F2938101A252F823F000BFF7
:100E0000210E00002F0E00003D0E0000BD0E000060
:100E10001F1100001F1100001F110000CB0E000069
:100E20004FF00403FB614FF00003FB7650E04FF0FE
:100E30000303FB614FF00103FB7649E04FF002032F
:100E4000FB614FF00203FB7601F060FA02464FF4BB
:100E50009043C0F2E8139A4221D94FF40043C4F200
:100E60000C034FF40042C4F20C02126842F08042BC
:100E700042F060021A604FF40043C4F20C031B6C92
:100E800003F01003002B22D048F20400C4F20C003F
:100E90004FF008014FF00102FFF7BCFA17E04FF4E2
:100EA0000043C4F20C034FF40042C4F20C02126877
:100EB00022F0600242F020021A6008E04FF00103C5
:100EC000FB614FF00303FB7602E000BF00E000BFD0
:100ED000FB7E18464FF001014FF0010200F04CF983
:100EE000FFF7B0FA4FF40043C4F20C03FA695A62F8
:100EF00000F0B6F901F056F9B860B868FFF7FCFAEF
:100F000010E1FB7803F1FF33082B00F20A8101A204
:100F100052F823F0390F0000410F0000590F000074
:100F20002311000023110000710F000023110000A5
:100F300023110000C90F00004FF000033B614BE09C
:100F40004FF000004FF001014FF0010200F014F9E2
:100F50004FF002033B613FE04FF001004FF0010111
:100F60004FF0010200F008F94FF001033B6133E05C
:100F700048F24000C4F20C004FF004014FF00102AF
:100F8000FFF748FA4FF003033B6101F00BF9B8603B
:100F9000BA684FF49043C0F2E8139A421BD94FF459
:100FA0000040C4F20C004FF01E014FF00102FFF7A9
:100FB00031FA48F20400C4F20C004FF008014FF07F
:100FC0000102FFF727FA06E04FF000033B614FF004
:100FD00001037B6100E000BFFB68022B14D14FF4DA
:100FE0000043C4F20C034FF40042C4F20C02926AB4
:100FF00022F4803222F00302396911437A694FEA00
:1010000002420A439A628DE04FF40043C4F20C039B
:101010004FF40042C4F20C02926A22F4801222F0D1
:101020000C0239694FEA810111437A694FEA025291
:101030000A439A6276E0FB78072B02D0082B0DD08A
:1010400019E04FF40043C4F20C034FF40042C4F221
:101050000C02126822F080521A600DE04FF4004337
:10106000C4F20C034FF40042C4F20C02126842F0C6
:1010700080521A6000E055E054E0FB78032B30D03A
:10108000082B02D0022B12D045E04FF40043C4F2EB
:101090000C034FF020025A6200BF4FF40043C4F229
:1010A0000C03DB6A03F40043002BF6D034E04FF06E
:1010B00000004FF001014FF0010200F05DF84FF425
:1010C0000043C4F20C034FF040025A6200BF4FF4D9
:1010D0000043C4F20C03DB6A03F48033002BF6D028
:1010E0001AE04FF001004FF001014FF0010200F053
:1010F00043F84FF40043C4F20C034FF060025A620D
:1011000000BF4FF40043C4F20C03DB6A03F4003366
:10111000002BF6D000E005E004E000BF02E000BFD5
:1011200000E000BF07F12007BD4680BD80B483B05A
:1011300000AF78604FF40043C4F20C039B6D03F0E2
:101140000803002B12D17B6803F007037B604FF488
:101150000043C4F20C034FF40042C4F20C02D26FFD
:1011600022F007017A680A43DA6700E000BF07F15E
:101170000C07BD4680BC704780B586B000AF1346F3
:101180000246FA710A46BA717B71FB79052B61D868
:1011900001A252F823F000BF01120000ED1100007F
:1011A000C5110000B1110000D91100005512000056
:1011B0004FF001033B614FF00203FB604FF002036D
:1011C0007B6127E04FF004033B614FF00803FB60B5
:1011D0004FF008037B611DE04FF010033B614FF0BF
:1011E0002003FB604FF020037B6113E04FF04003CE
:1011F0003B614FF08003FB604FF080037B6109E0AF
:101200004FF480733B614FF40073FB604FF4007345
:101210007B6100BFBB79002B13D04FF40043C4F2B5
:101220000C033A691A627B79002B10D000BF4FF48F
:101230000043C4F20C03DA6A7B691340002BF6D03A
:1012400005E04FF40043C4F20C03FA681A6200F0A0
:1012500007F800E000BF07F11807BD4680BD00BFDA
:1012600080B400AF4FF40043C4F20C03DB6A9AB2BF
:1012700040F2BC03C2F200031A80BD4680BC704736
:1012800090B484B000AFB9607B600346FB73134633
:10129000BB73BB7B002B2DD07B68002B15D04FF48C
:1012A000C042C4F20002F97BBB684FF0010000FAB3
:1012B00003F318460B464FEAC3035B184FEA830358
:1012C000D31803F11003186014E04FF4C042C4F2C5
:1012D0000002F97BBB684FF0010000FA03F31846E7
:1012E0000B464FEAC3035B184FEA8303D31803F19D
:1012F00010035860BB68072B2BD84FF4C042C4F2D0
:101300000002F87B4FF4C041C4F20001FC7B23468D
:101310004FEAC3031B194FEA8303CB185968BB6814
:101320004FEA83034FF00F0404FA03F36FEA030359
:101330001940BC7BBB684FEA830304FA03F31943EB
:1013400003464FEAC3031B184FEA8303D3185960BF
:1013500036E04FF4C042C4F20002F87B4FF4C041C3
:10136000C4F20001FC7B23464FEAC3031B194FEA7A
:101370008303CB1803F108031968BB6803F18043AA
:10138000A3F108034FEA83034FF00F0404FA03F3B9
:101390006FEA03031940BC7BBB6803F18043A3F1F0
:1013A00008034FEA830304FA03F3194303464FEAA1
:1013B000C3031B184FEA8303D31803F10803196012
:1013C000BB7B002B2DD17B68002B15D04FF4C04286
:1013D000C4F20002F97BBB684FF0010000FA03F38E
:1013E00018460B464FEAC3035B184FEA8303D31832
:1013F00003F11003186014E04FF4C042C4F200027D
:10140000F97BBB684FF0010000FA03F318460B4666
:101410004FEAC3035B184FEA8303D31803F11003A9
:10142000586007F11007BD4690BC704780B483B088
:1014300000AF0346FB71FB79002B0CD04FF4204327
:10144000C4F208034FF42042C4F20802126842F0CA
:1014500001021A600BE04FF42043C4F208034FF47A
:101460002042C4F20802126822F001021A6007F159
:101470000C07BD4680BC704780B487B000AFF860F1
:10148000B9607A60FB6803F104734FEAC302BB687A
:10149000D3184FEA83037B617B697A681A6007F18E
:1014A0001C07BD4680BC704780B584B000AF786033
:1014B0004FF42043C4F208035B68FB604FF0000068
:1014C000FFF7B4FFFB6823F4830323F01F03FB60E3
:1014D0007B685B68FA681343FB607B681B7AFA6879
:1014E0001343FB607B685B7AFA681343FB607B689D
:1014F000DB68FA681343FB607B681B8AFA68134356
:10150000FB604FF42043C4F20803FA685A607B681A
:101510001B78002B03D04FF00100FFF787FF07F186
:101520001007BD4680BD00BF80B485B000AF7860B5
:101530004FF42043C4F208035B68FB60FB6823F4AC
:101540008033FB607B68002B08D0B3F5803F04D16B
:10155000FB6843F48033FB6001E000E000BF4FF420
:101560002043C4F20803FA685A6007F11407BD4625
:1015700080BC704780B483B000AF02460B46FA804F
:101580007B717B79002B0CD04FF42043C4F208030D
:101590004FF42042C4F208029168FA880A439A6024
:1015A0000DE04FF42043C4F208034FF42042C4F28C
:1015B00008029168FA886FEA02020A409A6007F10D
:1015C0000C07BD4680BC704780B584B000AFF860A2
:1015D000B9601346FB71FB68072B00F2FB8001A288
:1015E00052F823F0051600003F160000791600009F
:1015F000B3160000ED160000271700006117000069
:101600009B170000BB681F2B0ADCBA68FB794AF203
:101610004000C4F2080011461A46FFF72DFFDAE039
:10162000BB68A3F12003BB60BA68FB794AF25000A3
:10163000C4F2080011461A46FFF71EFFCBE0BB6854
:101640001F2B0ADCBA68FB794AF24400C4F2080096
:1016500011461A46FFF710FFBDE0BB68A3F1200357
:10166000BB60BA68FB794AF25400C4F20800114624
:101670001A46FFF701FFAEE0BB681F2B0ADCBA6811
:10168000FB794AF24800C4F2080011461A46FFF7F7
:10169000F3FEA0E0BB68A3F12003BB60BA68FB794E
:1016A0004AF25800C4F2080011461A46FFF7E4FE59
:1016B00091E0BB681F2B0ADCBA68FB794AF24C0048
:1016C000C4F2080011461A46FFF7D6FE83E0BB6855
:1016D000A3F12003BB60BA68FB794AF25C00C4F254
:1016E000080011461A46FFF7C7FE74E0BB681F2BBF
:1016F0000ADCBA68FB794AF2CC00C4F20800114651
:101700001A46FFF7B9FE66E0BB68A3F12003BB6091
:10171000BA68FB794AF2B400C4F2080011461A46CE
:10172000FFF7AAFE57E0BB681F2B0ADCBA68FB79FB
:101730004AF2D000C4F2080011461A46FFF79CFE98
:1017400049E0BB68A3F12003BB60BA68FB794AF2A9
:10175000B800C4F2080011461A46FFF78DFE3AE0C1
:10176000BB681F2B0ADCBA68FB794AF2D400C4F2CA
:10177000080011461A46FFF77FFE2CE0BB68A3F174
:101780002003BB60BA68FB794AF2BC00C4F20800CF
:1017900011461A46FFF770FE1DE0BB681F2B0ADCDE
:1017A000BA68FB794AF2D800C4F2080011461A461A
:1017B000FFF762FE0FE0BB68A3F12003BB60BA68CD
:1017C000FB794AF2C000C4F2080011461A46FFF73E
:1017D00053FE00E000BF07F11007BD4680BD00BF0B
:1017E00080B487B000AFF860B9607A60FB68072BFF
:1017F00000F2E48001A252F823F000BF1D1800009F
:101800004F18000081180000B3180000E518000010
:101810001B19000051190000871900004FF42043E4
:10182000C4F208031B6C7B61BB686FEA03037A692F
:1018300013407B61BA687B6813407A6913437B610C
:101840004FF42043C4F208037A691A64B7E04FF4F6
:101850002043C4F208035B6C7B61BB686FEA03033F
:101860007A6913407B61BA687B6813407A691343D5
:101870007B614FF42043C4F208037A695A649EE006
:101880004FF42043C4F208039B6C7B61BB686FEA92
:1018900003037A6913407B61BA687B6813407A69F5
:1018A00013437B614FF42043C4F208037A699A64BE
:1018B00085E04FF42043C4F20803DB6C7B61BB6816
:1018C0006FEA03037A6913407B61BA687B6813404F
:1018D0007A6913437B614FF42043C4F208037A69A9
:1018E000DA646CE04FF42043C4F20803D3F8CC3040
:1018F0007B61BB686FEA03037A6913407B61BA6856
:101900007B6813407A6913437B614FF42043C4F230
:1019100008037A69C3F8CC2051E04FF42043C4F2A5
:101920000803D3F8D0307B61BB686FEA03037A69A0
:1019300013407B61BA687B6813407A6913437B610B
:101940004FF42043C4F208037A69C3F8D02036E08C
:101950004FF42043C4F20803D3F8D4307B61BB6852
:101960006FEA03037A6913407B61BA687B681340AE
:101970007A6913437B614FF42043C4F208037A6908
:10198000C3F8D4201BE04FF42043C4F20803D3F87B
:10199000D8307B61BB686FEA03037A6913407B61CF
:1019A000BA687B6813407A6913437B614FF4204324
:1019B000C4F208037A69C3F8D82000E000BF07F139
:1019C0001C07BD4680BC704780B487B000AFF8608C
:1019D000B9607A60FB68072B00F2E48001A252F83C
:1019E00023F000BF051A0000371A0000691A000032
:1019F0009B1A0000CD1A0000031B0000391B0000D9
:101A00006F1B00004FF42043C4F208031B6D7B6181
:101A1000BB686FEA03037A6913407B61BA687B682D
:101A200013407A6913437B614FF42043C4F20803E7
:101A30007A691A65B7E04FF42043C4F208035B6D7E
:101A40007B61BB686FEA03037A6913407B61BA6804
:101A50007B6813407A6913437B614FF42043C4F2DF
:101A600008037A695A659EE04FF42043C4F20803E4
:101A70009B6D7B61BB686FEA03037A6913407B61EE
:101A8000BA687B6813407A6913437B614FF4204343
:101A9000C4F208037A699A6585E04FF42043C4F2E2
:101AA0000803DB6D7B61BB686FEA03037A6913404F
:101AB0007B61BA687B6813407A6913437B614FF49A
:101AC0002043C4F208037A69DA656CE04FF42043DE
:101AD000C4F20803D3F8B4307B61BB686FEA030338
:101AE0007A6913407B61BA687B6813407A69134353
:101AF0007B614FF42043C4F208037A69C3F8B42031
:101B000051E04FF42043C4F20803D3F8B8307B61AE
:101B1000BB686FEA03037A6913407B61BA687B682C
:101B200013407A6913437B614FF42043C4F20803E6
:101B30007A69C3F8B82036E04FF42043C4F20803B2
:101B4000D3F8BC307B61BB686FEA03037A6913404A
:101B50007B61BA687B6813407A6913437B614FF4F9
:101B60002043C4F208037A69C3F8BC201BE04FF499
:101B70002043C4F20803D3F8C0307B61BB686FEA2E
:101B800003037A6913407B61BA687B6813407A6902
:101B900013437B614FF42043C4F208037A69C3F80E
:101BA000C02000E000BF07F11C07BD4680BC7047A5
:101BB00080B483B000AF78604FF42043C4F20803D0
:101BC0004FF42042C4F20802526822F4E0117A680D
:101BD0000A435A6007F10C07BD4680BC704700BF3E
:101BE00080B485B000AF78604FF6D073CEF20F03AB
:101BF0001B69DBB203F03F03DAB27B681A704FF661
:101C0000D073CEF20F039B69DBB223F00F03FB739B
:101C10004FF6D073CEF20F03DB6903F0F0034FEA07
:101C20001313DAB2FB7B1343FB737B68FA7B5A70A6
:101C300007F11407BD4680BC704700BF80B483B075
:101C400000AF0346FB71FB79002B07D04FF4204314
:101C5000C4F208034FF001021A6606E04FF4204375
:101C6000C4F208034FF000021A6607F10C07BD46E4
:101C700080BC704780B483B000AF786000BF4FF481
:101C80002043C4F208035A6E7B681340002BF6D140
:101C900007F10C07BD4680BC704700BF80B483B01D
:101CA00000AF78604FF42043C4F208034FF42042A1
:101CB000C4F20802916A7A686FEA02020A409A62E4
:101CC00007F10C07BD4680BC704700BF80B500AF70
:101CD0004FF000004FF47041CFF20F014FF00002BF
:101CE000FFF77EFD4FF001004FF47041CFF20F017E
:101CF0004FF00002FFF774FD4FF002004FF4704107
:101D0000CFF20F014FF00002FFF76AFD4FF0030022
:101D10004FF47041CFF20F014FF00002FFF760FD6A
:101D20004FF004004FF47041CFF20F014FF000026A
:101D3000FFF756FD4FF005004FF47041CFF20F0151
:101D40004FF00002FFF74CFD4FF006004FF47041DA
:101D5000CFF20F014FF00002FFF742FD4FF00700F6
:101D60004FF47041CFF20F014FF00002FFF738FD42
:101D70004FF000004FF0FF014FF00002FFF724FE8C
:101D80004FF001004FF0FF014FF00002FFF71CFE83
:101D90004FF002004FF0FF014FF00002FFF714FE7A
:101DA0004FF003004FF0FF014FF00002FFF70CFE71
:101DB0004FF004004FF0FF014FF00002FFF704FE68
:101DC0004FF005004FF0FF014FF00002FFF7FCFD60
:101DD0004FF006004FF0FF014FF00002FFF7F4FD57
:101DE0004FF007004FF0FF014FF00002FFF7ECFD4E
:101DF00080BD00BF80B500AF4FF007004FF46041D9
:101E0000C5F20F014FF00002FFF7EAFC4FF00600A9
:101E10004FF46041CFF20F014FF00002FFF7E0FCFA
:101E20004FF005004FF46041CFF20F014FF0000278
:101E3000FFF7D6FC4FF004004FF46041CFF20F01E2
:101E40004FF00002FFF7CCFC4FF003004FF460416D
:101E5000CFF20F014FF00002FFF7C2FC4FF002007B
:101E60004FF46041CFF20F014FF00002FFF7B8FCD2
:101E70004FF001004FF46041CFF20F014FF000022C
:101E8000FFF7AEFC4FF000004FF020414FF0000292
:101E9000FFF7A6FC4FF007004FF007014FF00002DC
:101EA000FFF792FD4FF006004FF007014FF00002E0
:101EB000FFF78AFD4FF005004FF007014FF00002D9
:101EC000FFF782FD4FF004004FF007014FF00002D2
:101ED000FFF77AFD4FF003004FF007014FF00002CB
:101EE000FFF772FD4FF002004FF007014FF00002C4
:101EF000FFF76AFD4FF001004FF007014FF00002BD
:101F0000FFF762FD00BF80BD80B582B000AF034621
:101F1000FB714FF48640C0F204004FF00101FEF760
:101F2000DBFD4FF00200C0F206004FF00301FEF7A8
:101F300037FF4FF03000C0F20C004FF04001FEF7C9
:101F400057FC4FF00100FFF7F1F84FF45050C0F28A
:101F50000E004FF00101FEF7BFFD4FF0FF30FFF71D
:101F60009DFE44F23050C0F20000FFF79DFA4FF0A2
:101F700008004FF00101FFF7FDFA4FF010004FF09D
:101F80000101FFF7F7FA4FF080004FF00101FFF772
:101F9000F1FA4FF480704FF00101FFF7EBFA4FF4C4
:101FA00000704FF00101FFF7E5FAFB79002B13D029
:101FB0004FF44020FFF7FCFD4FF48030FFF7B4FAF8
:101FC0004FF40043C4F20C034FF40042C4F20C027D
:101FD000D26F42F00802DA67FFF778FE4FF0FF3069
:101FE000FFF748FE07F10807BD4680BD80B58AB0FF
:101FF00000AF7860786802F00FF80346BB614FF0DD
:1020000000033B624FF0FF30FFF734FE4FF001005A
:10201000FFF714FEFFF7EEFE4FF000033B625BE0BC
:102020003A6ABB699A4203DA7B681B787B6202E0FA
:102030004FF020037B627B6AA3F120037B6244F2B2
:102040007843C0F200037A6A33F81230FB824FF013
:102050000003FB6135E044F25832C0F20002396AF5
:102060000B464FEAC3035B1A4FEA8303D218FB699E
:10207000D31803F108039B793B6144F25832C0F254
:102080000002396A0B464FEAC3035B1A4FEA830327
:10209000F9695B18D3181B78FB60FA8AFB6942FA6E
:1020A00003F303F00103002B07D0FA683B691046E5
:1020B00019464FF00102FFF787FAFB6903F10103AC
:1020C000FB61FB690D2BC6DD7B6803F101037B60BF
:1020D0003B6A03F101033B623B6A062BA0DD4FF034
:1020E0000000FFF7ABFD07F12807BD4680BD00BF2C
:1020F000074880470749084A084B9B1A40F3058068
:10210000043BC858D0503FF7FBAF054800470000DC
:102110002523000068450000000000208800002002
:1021200055010000FEE7FEE7FEE7FEE7FEE7FEE7FB
:10213000FEE7FEE7FEE7FEE7FEE7FEE7FEE7FEE777
:10214000FEE7FEE7FEE7FEE7FEE7FEE7FEE7FEE767
:10215000FEE7FEE7FEE7FEE7FEE7FEE7FEE7FEE757
:10216000FEE7FEE7FEE7FEE7FEE7FEE7FEE7FEE747
:10217000FEE7FEE7FEE7FEE7FEE7FEE7FEE7FEE737
:10218000FEE7FEE7FEE700BF80B400AF48F2B01301
:10219000C0F6E073DB6C4FEA1363DBB21846BD4652
:1021A00080BC704780B582B000AF00F027F878603F
:1021B0004FF40043C4F20C031B6803F4E0334FEA0E
:1021C000933303F101037A68B2FBF3F37B604FF4BE
:1021D0000043C4F20C035B6803F00F037A6822FA31
:1021E00003F37B6040F60443C2F200037A681A608E
:1021F0007B68184607F10807BD4680BD80B582B0F0
:1022000000AF4FF40043C4F20C03DB6A03F47053D5
:10221000B3F5805F0DD0B3F5005F03D0B3F5006F69
:102220000BD011E040F21403C2F200031B687B6084
:1022300066E04FF400437B6062E040F21003C2F2BC
:1022400000031B687B605BE04FF40043C4F20C03A7
:10225000DB6803F4E063B3F5007F24D0B3F5007FBF
:1022600005D8002B36D0B3F5807F22D043E0B3F5FC
:10227000806F0CD0B3F5A06F03D0B3F5407F0CD0C6
:1022800039E04FF47C53C0F2AB137B6037E046F685
:102290004073C0F240137B6031E049F68073C0F2B6
:1022A000D5037B602BE04DF6C003C0F2A7037B6033
:1022B00025E0FFF769FF0346122B05D94BF2405387
:1022C000C0F264037B601AE04CF6C073C0F26A038C
:1022D0007B6014E0FFF758FF0346122B05D94FF43B
:1022E0009F43C0F212037B6009E044F24023C0F236
:1022F0000F037B6003E04FF000037B6000BF00BF73
:102300007B68184607F10807BD4680BD80B400AF62
:1023100040F21003C2F200031B681846BD4680BCA1
:10232000704700BF80B400AFBD4680BC704700BF9F
:1023300080B483B000AF03463960FB714FF4C042F4
:10234000C4F20002F9793B684FF0010000FA03F390
:1023500018460B464FEAC3035B184FEA8303D318B2
:1023600003F11003586007F10C07BD4680BC7047AD
:1023700080B483B000AF03463960FB714FF4C042B4
:10238000C4F20002F9793B684FF0010000FA03F350
:1023900018460B464FEAC3035B184FEA8303D31872
:1023A00003F11003186007F10C07BD4680BC7047AD
:1023B00080B582B000AF48F21010C0F202004FF0BA
:1023C0000101FEF789FB4FF45240C0F202004FF0CA
:1023D0000101FEF781FB4FF000037B601BE044F23C
:1023E0004453C0F200037A6813F8321044F24452A6
:1023F000C0F200027B684FEAC303D3185B6808464B
:1024000019464FF004024FF00003FEF739FF7B68D6
:1024100003F101037B607B68012BE0DD4FF00003DB
:10242000184607F10807BD4680BD00BF80B584B0DF
:1024300000AF78604FF00003FB604FF00103BB601A
:1024400035E07A68BB681340002B14D044F2445343
:10245000C0F20003FA6813F8321044F24452C0F29A
:102460000002FB684FEAC303D3185B6808461946AD
:10247000FFF77EFF13E044F24453C0F20003FA6812
:1024800013F8321044F24452C0F20002FB684FEAE3
:10249000C303D3185B6808461946FFF749FFFB687A
:1024A00003F10103FB60BB684FEA4303BB60FB68B9
:1024B000012BC6DD4FF00003184607F11007BD469B
:1024C00080BD00BF80B400AF4FF40043C4F20C03E2
:1024D0004FF40042C4F20C02526C42F400525A64AF
:1024E0004FF4C043C4F200034FF4C042C4F20002F0
:1024F000D2F8202142F00402C3F820214FF4C04357
:10250000C4F200034FF4C042C4F20002D2F820210A
:1025100022F44072C3F820214FF4C043C4F20003F8
:102520004FF4C042C4F20002D2F8B82022F4706224
:10253000C3F8B8204FF4C043C4F200034FF4C042C4
:10254000C4F20002D2F8B82042F48062C3F8B82086
:102550004FF40043C4F20C034FF010021A6200BFA4
:102560004FF40043C4F20C03DB6A03F02003002B9A
:10257000F6D04EF6F053CEF200034EF6F052CEF205
:102580000002D26842F08072DA604FF48053CEF2DB
:10259000000341F2FF32C4F201021A604FF000035F
:1025A000CEF204034FF00F021A614FF00003CEF297
:1025B00004034FF00202C3F8F0204FF00003CEF204
:1025C00004034FF48072C3F804234FF060424CF6CA
:1025D0005563CCF2AC53C2F8B03F4FF060424FF0BD
:1025E0000903C0F20103C2F8803EBD4680BC7047BB
:1025F00080B582B000AF4FF07E637B607B681B6864
:10260000002B02D14FF0000303E0FFF75BFF4FF018
:102610000103184607F10807BD4680BD00B5DFF885
:102620000CC000DFDFF808C000DFFEE78D280000E7
:10263000A5280000F0B5364C83B0237843B1354867
:10264000FF2201688A7001202070002003B0F0BDD5
:10265000314B3248196800F06BFC08B18520F5E772
:1026600001F0D4FA2B4920780B68FF229A700028D9
:10267000E9D12B4D2968002948D06D6855B12B78D8
:10268000002B41D1081D82004FF6FC7128461140F5
:1026900000F00AFD234924480B6805600193019A64
:1026A0007AB1B1F90450EA1C0BDB032D09DCCF68C9
:1026B0004FB9291D3A4601983B4601F093F905466A
:1026C000D0B9002015E01548394600F03FFC064619
:1026D0000028F6D0043545EA072101983246002348
:1026E00001F080F9054638B90C48314600F052FC3B
:1026F00028460E4B1860A6E70D4B691E53F82100C3
:102700000C49426A5163F4E70546C3E70D46C1E749
:10271000080C00204C0C002010430000180800207A
:1027200018430000A4000020EC0900201C0B00202E
:10273000000800201D26000010B50A4C207878B94A
:10274000014601F0D7F8084B1868416A203181F33F
:102750000988054B00221A6001F008FB0120207057
:10276000002010BD090C00204C0C002010B5EFF328
:1027700005840CB1822010BDEFF3148414F0010F16
:1027800003D0DFF810C000DF10BDBDE81040FFF738
:1027900051BF00003526000010B588B0EFF3058466
:1027A00014B1822008B010BDEFF3148404F00304C8
:1027B000022C1CD0032C13D0012C16D008AC84F3AF
:1027C0000988104C2478E40717D4032484F3148870
:1027D000BFF34F8FBFF36F8FDFF82CC000DFE1E74F
:1027E000084C247814F0010FF6D0FF20DAE7054CEE
:1027F000247814F0010FEFD1E7E7022484F3148862
:10280000E6E700BF004300003927000070B504462A
:102810000E46002831D0006800282ED0B4F90410EC
:10282000CB1C2ADB032928DCE268C2B1144811461C
:1028300000F08CFB054600B3B4F90430E268191DC2
:10284000206841EA022133462A4601F0CBF80446CB
:1028500058B929460A4800F09DFB204670BD043156
:10286000334601F0BFF8044638B1064B601E53F8FA
:102870002000054A416A4A6370BD002070BD00BF58
:1028800018080020000800201D26000008B501F0EF
:1028900029F818B1024B013853F8200008BD00BFD9
:1028A0000008002010B588B182070FD103786BB9FA
:1028B000448C6CB9C07801F039F9FF280ED01CB1F6
:1028C0000748214600F066FB002010BD802010BDA7
:1028D000846AC07801F02AF9FF28F0D1812010BD68
:1028E0001808002070B504460D46EFF30580002857
:1028F0002FD1EFF31481C90702D41E48017829B102
:1029000020462946DFF87CC000DF70BD0CB320688C
:10291000F8B1B4F90410CB1C1BDB032919DCE26805
:10292000CAB11548114600F011FB064688B1B4F94A
:102930000430E268191D41EA0221206832462B4624
:1029400001F050F868B931460B4800F023FB002035
:1029500070BD002070BD04312B4601F043F8002803
:10296000F7D0064B013853F82000054A416A4A6304
:1029700070BD00BF090C00201808002000080020CE
:102980001D2600000D28000008B500B908BD431C35
:1029900008D04FF41063C0F23D03984208D94FF6B7
:1029A000FE7001E04FF6FF7000F05EFB402008BDB6
:1029B00007490B684FF47A715A1E01FB00204FF64D
:1029C000FE72B0FBF3F3934228BF134698B2EBE7D5
:1029D0000443000010B5EFF305840CB1822010BD54
:1029E000DFF804C000DF10BD892900002DE9F047A1
:1029F000284F3D68002D34D02B89DFF89C80581E6D
:102A000083B22B814FF001094FF0000A8BB92C687B
:102A1000D8F800603C6016B1317801292FD06A796E
:102A2000012A08D085F80490DCB123892546002BC3
:102A3000EDD0BDE8F08738686A8958B101898A42CB
:102A400004D210E0198991420FD818460368521A2F
:102A5000002BF7D1C5F800A02A8170B10560002CC9
:102A6000E3D1BDE8F0870346002092B22A8119899C
:102A70002B608A1A1A810028F0D13D60D4E73046D5
:102A800000F0C6FB0028CAD03046294600F0C4FB3F
:102A9000C5E700BF0C0C0020EC09002010B504466F
:102AA00098B1016879B143685BB1806850B1DA1CB4
:102AB00022F0030201FB02F10C3100F08BFAA06856
:102AC00010BD184610BD084610BD10BD38B50C46E7
:102AD0000546F0B100F0A6FAD4B1D0B1AB68BBB1F5
:102AE00001461A1F002441F8044B13460431C2F377
:102AF000800283B122B141F8044C0431043B0BD075
:102B00000A4641F8044C42F8044B111D083BF7D12A
:102B100038BD002038BD38BD38BD00BF08B530B164
:102B200000F08EFA002814BF8620002008BD802007
:102B300008BD00BF10B50446EFF30580E0B9EFF320
:102B40001480C00702D41048007820B12046DFF876
:102B50003CC000DF10BDACB123687BB162687AB1C4
:102B6000A06850B1D11C21F0030203FB02F10C312B
:102B700000F030FAA06810BD002010BD184610BD4E
:102B8000104610BD204610BD090C00209D2A0000F3
:102B900030B50446EFF3058141B9EFF3148515F024
:102BA000010F03D0DFF814C000DF30BD20461CB198
:102BB000BDE8304000F036BA30BD0000CD2A00003C
:102BC00070B505460E46EFF3058444B9EFF314845F
:102BD00014F0010F03D0DFF820C000DF70BD45B155
:102BE0002846314600F02CFA002814BF8620002029
:102BF00070BD802070BD00001D2B000010B5044684
:102C000090B1036873B1406858B1027842B9191D98
:102C10008B004FF6FC71194000F046FA606810BD59
:102C2000002010BD184610BD10BD00BF70B5034692
:102C30000E46154610B10478012C01D0802070BDDD
:102C400001320FD04FF41062C0F23D02954215D907
:102C50004FF6FE721846314600F034FA012809D0CA
:102C6000002070BD4FF6FF7200F02CFA0128F7D15A
:102C7000C12070BD002DFBD1812070BD07480268C6
:102C80004FF47A70511E00FB05114FF6FE70B1FB38
:102C9000F2F2824228BF024692B2DBE70443000010
:102CA00010B5034684B00C4610B10278012A05D055
:102CB000002180200022134604B010BD013113D042
:102CC0004FF41060C0F23D00844216D94FF6FE72F8
:102CD000184602A900F044FA012802D010200299F7
:102CE000E8E744B92046FAE702A94FF6FF7200F080
:102CF00037FA0128F2D14020F1E708494FF47A7001
:102D00000A68511E00FB04114FF6FE70B1FBF2F28F
:102D1000824228BF024692B2DAE700BF04430000B5
:102D200038B50446EFF30580D8B9EFF31480C00737
:102D300002D4104D2D7825B12046DFF83CC000DFCD
:102D400038BDA4B1236883B1606858B1027852B924
:102D5000191D8B004FF6FC71194000F0A5F9606851
:102D600038BD002038BD284638BD184638BD20463D
:102D700038BD00BF090C0020FD2B0000F8B505464A
:102D80000F461646EFF305841CB9DFF82CC000DFB0
:102D9000F8BD18B112B90378012B01D08020F8BD1D
:102DA00000F036FA08B98120F8BD2846394600F00F
:102DB00033FA3046F8BD00002D2C000070B50446F3
:102DC00084B01646EFF305854DB908461146DFF885
:102DD00050C000DF84E80700204604B070BD19B180
:102DE00012B90B78012B07D004A9802241F80C2DD1
:102DF00007C984E80700EFE7084602A900F014FAC3
:102E0000042801AD05D0019695E8070084E8070085
:102E1000E2E71020019095E8070084E80700DBE76F
:102E2000A12C0000438CF0B49D0802D11A4A1488EA
:102E3000A508846A4FF0807604EB85035A0748BFE3
:102E4000043B002243F8402C43F83C2C43F8382C38
:102E500043F8342C43F8302C43F82C2C43F8282C1E
:102E600043F8242C43F81C2C43F8182C43F8142C5A
:102E700043F8102C43F80C2C42F6A565C269A3F167
:102E80004007CEF25A2503E9420043F8202C47625E
:102E9000C1622560F0BC7047F4420000436A1962C9
:102EA000704700BF436A19625A6270474EF6FC537E
:102EB000CEF200031868C0010DD54FF46861CEF260
:102EC00000010A68D10706D54FF46063CEF2000313
:102ED0001868002800DB7047014A01211170704713
:102EE000100C002010B47C24CEF2000422687C2355
:102EF000CEF20003002AF9D0C26A1C461A6022688A
:102F00007C23CEF20003002AF9D0C07840EA0121E8
:102F10008AB21A8010BC70477C21CEF200010A6888
:102F20007C23CEF20003002AF9D0C0B2187070479B
:102F300050B1072908D9411800230A1F80E80C0066
:102F400041F8043C184670470120704730B488B1FE
:102F5000E9B101F10B05036825F00305024600E025
:102F600003465468991A081B854205D918681A4601
:102F70000028F5D130BC70471CB9556002F108003B
:102F8000F8E7A018A350456010600830F2E7084643
:102F9000F0E700BF30B478B171B1A1F10804A042EC
:102FA00013D0036843B1054600E013469C4206D0A7
:102FB0001A681D46002AF8D1012030BC70472DB197
:102FC00051F8081C00202960F7E7034600205860EC
:102FD000F3E700BF002A70B41DDBD51C25F0030504
:102FE0000C24ADB162198A4212D8041941184E1B43
:102FF00063199E4204604160856001D205E003468A
:103000005819864223601C46F9D20020206000E057
:10301000012070BC704722F00042D31D23F0070549
:103020001024DEE7EFF3108272B6036802F00102AB
:103030000BB11968016002B962B61846704700BF4B
:1030400081420DD3436899420AD2EFF3108372B6DE
:1030500002680A60016013F0010003D162B6704794
:103060000120704700207047032100F013BC00BF0F
:10307000426810B5034682B100F098F9044600F0AA
:10308000B1FA0123204619466370FFF707FF054890
:103090002146BDE8104000F061B94088411C5980CC
:1030A00010BD00BF180C0020103900238908012230
:1030B0000270437083704360038143818381C181C7
:1030C000704700BFF0B5466883B003460F4616B19F
:1030D000417801292BD09D89DC89A54214D018891B
:1030E000021D43F82270EFF3108272B601359D8104
:1030F00062B6411C88B2844203D01881002003B01C
:10310000F0BD00201881FAE77AB1FEB1134C1846E1
:103110002168019200F022F92168019ACF611046DE
:10312000082100F0B7FB0120E9E70120E7E700F004
:103130003DF9102104463A46FFF7B4FE204600F060
:1031400051FA204600F068FB0020D8E7034902202E
:10315000096859604E608B605870DFE74C0C0020A6
:1031600038B5838904461546BBB14289C589101D0F
:10317000013292B254F820009542086062811BD05F
:10318000606810B16278022A24D0EFF3108272B620
:10319000013BA38162B6002038BD5AB1416889B1B4
:1031A0001A49096800F0DAF82846082100F072FB95
:1031B000012038BD012038BD6068002161810028F0
:1031C000E0D1E2E7114A0123106860604160846049
:1031D0006370E9E7204600F0E9F800210546FFF7B3
:1031E0005DFE2289E089531CE9699BB20432984252
:1031F00044F82210238101D100212181284600F0CA
:10320000F1F9284600F008FB002038BD4C0C0020E6
:10321000C2898089101A704708B500F0F7F9BDE837
:10322000084000F03FBA00BF38B583890446ABB10F
:103230004289151D50F825500D604178022913D0A0
:10324000EFF3108172B6581EA08162B6511CE3895B
:103250008AB29342628103D0042038BD184638BD3B
:1032600000206081042038BD002100F0CFF900F07B
:1032700019FAA3896289E3E7436870B504460E46EC
:10328000002B4FD04578022D26D0032D02D0012DE2
:1032900011D070BD0846FFF7C5FE05460028F8D0DE
:1032A000204600F083F829460446FFF7F7FD012386
:1032B0002046637008E000F079F810210446324699
:1032C000FFF7F0FD2046657000F08CF9224821469A
:1032D000BDE8704000F042B800F068F800210546F3
:1032E000FFF7DCFD2089EA69011D44F82120EFF396
:1032F000108272B6A3895A1CA28162B60130E1899C
:1033000083B2994223810AD001212846697000F0D6
:1033100069F911482946BDE8704000F01FB8002245
:103320002281F1E78189C289914210D20089051D6D
:1033300044F82560EFF3108572B60131A18162B6C1
:10334000013081B28A422181A3D1238170BD032043
:10335000BDE87040FCF74EBF180C002070B4037835
:1033600042685C1E022C8CBF002601268C785AB164
:103370009578A54204D214E0987884420BD81A4676
:103380005368002BF8D1104600224A60416056B1C4
:10339000886070BC704710464B6041601EB19960F8
:1033A000F6E71346F8E70020F2E700BF436801782C
:1033B0005A6801390229426007D812B19060002290
:1033C0005A600021996018467047002058601846DE
:1033D000704700BF40F61843C2F200035A6800214C
:1033E0004260816058607047816870B4002927D0BE
:1033F0000B780A461BB992681478002CFBD04368FE
:103400004B60446804B1A160137851685C1E022CC3
:103410008CBF00260126847800292AD08D78A54209
:1034200004D21DE09A7894421CD819464B68002BB0
:10343000F8D1002242604860CEB90021816002E0EC
:103440004178012901D070BC70470C4B01E0134654
:103450008AB15A689042FAD14468084A5C60D3E75E
:103460000B46114643604860002EE6D098608160AC
:10347000E9E71146DDE7014AC6E700BF180C002066
:1034800030B4164CE368002B22D0A28A914203D8B4
:1034900021E0DC689CB123469C8A12199142F8D83D
:1034A000DD68C560D860C468036104B12061511A49
:1034B0008AB28282988A811A998230BC704792B20D
:1034C0000024891AC4609982D86003618482F4E779
:1034D0001A462346F4E71D462346E2E7300C002057
:1034E0002DE9F003314EF068002833D0B58A691E0B
:1034F0008DB2B582002D2DD12D4F2E4B97F8009017
:10350000B3F8008009F1FF39B9F1020F8CBF4FF019
:1035100000094FF001094FF0010C826832B1446894
:103520005460416809B18A60456085607A68847832
:103530009AB19378A34204D22DE099788C422CD88A
:103540001A465368002BF8D108E00161002A1FD108
:10355000B282F260BDE8F0037047154A45605060E2
:10356000B9F1000F20D043788260042B828A0AD000
:10357000C16880F801C00029E7D00E61C56005610F
:1035800032B90846C9E7C18A08EB01038382EFE735
:10359000B282F160DEE71346054A43605060B9F13C
:1035A000000F01D09860DEE70022DCE7300C00203D
:1035B000180C0020140C0020836833B142685A6054
:1035C000416809B18B6070477047054902E01146B8
:1035D000002AF9D04A688242F9D1406848607047B1
:1035E000180C0020036910B463B1C268DA60C268C5
:1035F00052B1998A848A1361611899820023C36049
:103600000022026110BC70479A82F9E730B40F4B78
:10361000DC78EFF3108272B69A78944208D9551C80
:103620001A789D70551CAC4214BFEDB200251D7078
:1036300062B6944205D903EBC2035860996030BC6E
:103640007047022030BCFCF7D5BD00BF68090020E0
:1036500010B5028B43781143062B04460183408B3F
:1036600019D0052B00D010BD11EA0002FBD06283F7
:1036700021EA000121832046FFF7B4FF0122204602
:1036800008216270628BFFF70DFC05482146BDE8FA
:103690001040FFF763BE01EA00038342E8D010BD8B
:1036A000180C0020064B1A7812B101209870704750
:1036B0004EF60451CEF200014FF080530B6070477C
:1036C000BE00002038B51A4B1A4C18680121417011
:1036D000FFF780FEA078657890B921E0012A1AD022
:1036E000FFF7C6FCE0780135854208BF0025EFF3FF
:1036F000108372B6A1784B1EDAB2A27062B67AB1AC
:1037000004EBC5014B681A781846002AE6D10989EE
:10371000FFF79EFFE6E718468968FFF7ADFDE1E792
:1037200005486570FFF742FEBDE8384000F062B81A
:103730004C0C002068090020180C002044F2FC23E7
:10374000C0F2000310B44EF214001C68CEF2000068
:103750004EF218010460CEF2000100204EF2100279
:103760000860CEF2000207214EF620531160CEF21F
:1037700000031A684FF0FF3042F07F41196010BC1F
:10378000704700BF704700BF08B540F64C43C2F217
:103790000003196801224A700846FFF71BFE00F07B
:1037A000A9FB40F61440C2F200000368591C0160F6
:1037B000FFF796FEFFF71AF940F61840C2F2000034
:1037C000FFF7F4FDBDE8084000F014B8084B186896
:1037D000826A416A8A4206D842F6A5631068CEF230
:1037E0005A23984202D00120FCF704BD704700BF65
:1037F0004C0C0020064A074B127802215860417099
:103800002AB11B68984202D0C078FFF785BB704789
:10381000100C00204C0C002038B50446002820D0A5
:10382000194D8278286883789A4207D80120607001
:1038300016482146BDE83840FFF790BDFFF7CAFDA6
:1038400013492B680A780120022158706C6061705E
:1038500032B19C4204D0E078BDE83840FFF75CBB51
:1038600038BD0A48FFF7A2FD094A074B127802212A
:1038700058604170002AF3D01B689842F0D0C0789D
:10388000BDE83840FFF748BB4C0C0020180C002066
:10389000100C002038B50D46E0B14FF6FF7398428A
:1038A0000D4C03D001462068FFF7EAFD21680B4864
:1038B0004D70FFF77BFD0A4A02211378606041706A
:1038C00043B1054A1368984204D0C078BDE8384037
:1038D000FFF722BB38BD00BF4C0C0020180C0020A5
:1038E000100C0020024B186800B1C078704700BF70
:1038F0004C0C002070B548B9354C2568A970354D81
:10390000686882788A422AD8002070BD324B1A88B3
:10391000904201D9FF2070BD304D013855F820503C
:10392000002DF7D02A4CA97023689D42E7D0284685
:10393000FFF75AFD6D78012DE6D12648FFF736FDD9
:103940000646002836D02068B178827891421FD888
:10395000757020483146FFF701FD002070BD2846F4
:103960002168FFF7FBFC216801234B702846FFF715
:103970001DFD1B4A02231178606043700029C3D0EB
:10398000134A11688842BFD0C078FFF7C5FABBE779
:10399000FFF720FD124B20681A78022145706660FF
:1039A0007170002AB0D08642AED0F078FFF7B4FA3A
:1039B000002070BD0748FFF7F9FC094B0222197877
:1039C0006060427000299FD023689842DCD19BE759
:1039D0004C0C0020180C0020F042000000080020D1
:1039E000100C00202DE9F04711F0FF0F80464848E9
:1039F0000E469246994608BF4E1CFFF713FB05463C
:103A0000002879D00024C6F30F270122C0F828A08F
:103A10004784C0F81C9004704270867044608460D3
:103A2000C46004618482C4820483448385F8204096
:103A3000002F49D028464146FFF7F4F93548018860
:103A400000295DD0344E3368002B5ED00124CA07B4
:103A500037461CD402248C421CD8374657F8042F12
:103A6000AAB92E4F631E46F823503E78E1B2E970A2
:103A7000DEB128460121FFF735FA16E057F8040FAA
:103A80000028EED057F8043F0134002BE9D0013470
:103A90008C42F3D900214FF0FF330C461F4F46F8FC
:103AA00023503E78E970002EE3D11D4EAA7830688D
:103AB00083789A420DD80120687029461948FFF78B
:103AC0004DFC2046BDE8F0871748FFF7ABFAA86227
:103AD000B0E7FFF77FFC33683A7801210220597084
:103AE00075606870002AECD09D42EAD0E878FFF754
:103AF00013FA2046BDE8F08704462046BDE8F0876B
:103B00004FF0FF330C46044EC8E701210C46C5E7D1
:103B1000F0090020F042000000080020100C0020F6
:103B20004C0C0020180C0020D0000020F8B5304CC0
:103B3000256840B1EB78834205D02E490A8890422F
:103B400033D9FF20F8BD00266E7000F030F96862AE
:103B5000FFF73CFE2368284AD978284D481E42F8D2
:103B60002060996A2648FFF76BFA21682B788E62ED
:103B70002BB1084631461E4EFFF7B4F93168214893
:103B8000FFF75EFA002620482660FFF70FFC297831
:103B900002226060427019B3154B196888421FD029
:103BA000C078FFF7B9F93046F8BD134D461E55F8F9
:103BB0002640002CC5D02046FFF7FEFC00272046FB
:103BC000FFF710FD45F826700D48A16AFFF738FA97
:103BD0000A48A76203782BB90A482146FFF730FA52
:103BE0000020F8BD20463946FFF77CF9F4E700BF16
:103BF0004C0C0020F042000000080020100C0020B7
:103C0000D0000020F0090020180C002070B5FFF74C
:103C10004DF9464B1C88A4B1454D01260020621E7B
:103C2000B442286002F001010BD921B10226B4424E
:103C300045F8040F05D902366860A8600835B4421B
:103C4000F9D83C4B3C4C198830223C48FFF7C2F96C
:103C500025883B4845F0004201683A48FFF7BAF929
:103C6000394E3A493A4C0822098830680025FFF756
:103C7000B1F9FF2201233348E27063706584257037
:103C8000A5706560A560E5602561A582E582258354
:103C9000658384F82050FFF7C5F92E49A0622046BD
:103CA000FFF7C0F82C4B2D48042119700170DD601E
:103CB0001D619D822A492B4B2B4A1C600B78456065
:103CC0000220607015705570D37000F005F94EF643
:103CD0002050CEF2000002682E4642F47F010160BF
:103CE0000368180200F07F42D143B1FA81F34EF627
:103CF0000C50CEF200000268D9B2C1F10803C2F341
:103D00000220834200DC431C6FF0807101FA03F152
:103D10004EF61C50CEF20000026801F07F4322F004
:103D20007F4143EA0102026070BD00BFF042000023
:103D30000008002008430000F4420000F0090020C1
:103D40000C430000D0000020B400002020430000FD
:103D5000540C0020E9010000300C0020180C002059
:103D6000144300004C0C00206809002008B5FFF740
:103D7000E5FC0C4B0028186012DB00F1604000F5F8
:103D80006441FF220A701B68012103F01F0001FA41
:103D900000F25B11980000F1604101F561431A6087
:103DA00008BD00BF480C002080F309887047EFF37E
:103DB00009807047684680F3098841480078C00749
:103DC00014BF0220032080F314887047DFF8F4C08A
:103DD000EFF305831B0618BF6047EFF31483DB077F
:103DE00008BF604700DF7047DFF8DCC0EFF30583F2
:103DF0001B0618BF6047EFF31483DB0708BF60475B
:103E000000DF7047EFF30980816911F8021CF9B9EE
:103E100090E80F10E047EFF3098C8CE807002B4B7C
:103E200093E80600914200F0108039B12CE9F00FC0
:103E3000C1F824C00CB4FFF7C9FC0CBC1A60D2F85E
:103E400024C0BCE8F00F8CF309886FF0020E7047B5
:103E500010B51F4A1268914200F20A801D4C54F8B6
:103E6000214090E80F10A047EFF3098C8CE80F0079
:103E700010BDFFF727FC154B93E80600914200F0B8
:103E80001180EFF3098C2CE9F00FC1F824C00CB4B9
:103E9000FFF79CFC0CBC1A60D2F824C0BCE8F00F01
:103EA0008CF309886FF0020E7047FFF76DFCFFF787
:103EB000E2BFFFF767FCFFF767FCFFF7DCBF00001E
:103EC0000043000025300000413000004C0C002071
:103ED00000000000FCFFFFFF44F2F822C0F20002E5
:103EE00040F684431068C2F2000300211960D880B4
:103EF000704700BF08B5104A104B506819688142DE
:103F000016D00F49DA880968013A521892B218603F
:103F10009A8088B2904200D008BD002106481960FE
:103F2000FFF744FA01460448BDE80840FFF716BA17
:103F300003489A880168ECE7180C0020840C0020E4
:103F4000140C002010B5034C14B100F06DF810BD36
:103F5000204610BD294000000146002002460346CD
:103F600000F062B808B5084B04461BB1002100F010
:103F700099F801E000F00CF804480068816A01B18A
:103F80008847204600F0A6F9A540000058450000EB
:103F900070B5084B084C0025E01A841003EB84062A
:103FA000043D1CB172599047013CF9E7BDE87040EF
:103FB00000F098B9840000208800002038B50E4D2C
:103FC0000E4B0024E81A8510AC4205D00B4951F87D
:103FD000242090470134F7E700F07EF90849094AA8
:103FE000541AA5100024AC4205D0054B53F8240008
:103FF00080470134F7E738BD8000002080000020B2
:10400000800000208400002082180346934202D0E2
:1040100003F8011BFAE77047034613F8012B002A47
:10402000FBD1181A013870472DE9F84399461C4B0B
:1040300006461D680F46AC6C904654B94FF4C670E6
:1040400000F080F80021A8644FF4C6720446FFF720
:10405000DBFF25681F2D1EDCAEB1012202FA05F23E
:10406000D4F8841104EB85001143022EC0F884803B
:10407000C4F88411C0F8049105D1D4F8883143EA1A
:104080000200C4F8880104EB850201355760256001
:104090000020BDE8F8834FF0FF30BDE8F88300BF93
:1040A000584500002DE9F843244B804618680F4618
:1040B000846C002C40D0214651F8846B751E1F364D
:1040C00001EB8606002D30DB2FB13068B84202D0FC
:1040D000013D043EF6E72168A6F18402481E8542B0
:1040E00052F87C3C01D1256002E0002142F87C1CA2
:1040F000002BEDD0012202FA05F2D4F88401D4F8A5
:104100000090024201D198470BE0D4F888110A428E
:1041100004D1404656F8801C984702E056F8800CBF
:10412000984723689945D3D0C5E7054A22B123684B
:1041300013B9204600F00EF8BDE8F883584500009A
:1041400055410000024B0146186800F00BB800BF53
:104150007C000020024B0146186800F05DB800BFEB
:104160007C00002070B5CD1C25F0030508350C2D12
:1041700038BF0C25002D06462DDB8D422BD31D4B61
:104180001B681C469CB12268501B0DD40B2802D919
:104190002060241817E0A34203D16068154A10601C
:1041A0001DE0616859601AE023466468EAE7294621
:1041B000304600F021F8431C01460CD0CC1C24F002
:1041C00003048C4201D1256009E03046611A00F0F9
:1041D00013F80130F7D10C203060002070BD04F1DD
:1041E0000B01231D21F00700C31A02D05A42E250EE
:1041F00070BD70BDC400002038B5064C00230546D4
:104200000846236000F04CF8431C02D1216801B13C
:10421000296038BD8C0C002030B500293CD051F805
:10422000042C0B1F1D49002AB8BF9B180A6812B93D
:104230005A600B6030BD93420ED2196858189042F4
:1042400003D15A5889184268196014485A600360AB
:1042500030BD994203D80A4651680029F9D1146843
:1042600015199D420AD118682318D0188842136086
:1042700012D108681B1813604B680CE002D90C239C
:10428000036030BD18681C188C4203D10C68496863
:10429000001918605960536030BD00BFC400002091
:1042A000094A13686BB118186946884202D8106031
:1042B00018467047054B0C221A604FF0FF33184622
:1042C0007047034B1360EEE7C80000208C0C002001
:1042D000900C0020FEE700BFF8B500BFF8BC08BC9A
:1042E0009E467047F8B500BFF8BC08BC9E467047B4
:1042F000060000002C01010105000100AF3600009E
:1043000001000000E80300002C010000300700005D
:1043100040010000100000000000000058090020CB
:10432000000000001000000008000000740B0020D6
:1043300010000000200B002085020000000000009B
:104340000100000096000000D10200000000000003
:1043500001000000960000000101050707030402A8
:104360000302040605060D0E0E0E0D0D0D0D0E0EAC
:104370000E0E0D0D010105070703040203020406DA
:1043800005060F1010100F0F0F0F101010100F0F49
:1043900001010507070304020302040605061112C2
:1043A000121211111111121212121111010105072D
:1043B00007030402030204060506131C1C1C131346
:1043C00013131C1C1C1C1313000105070602030118
:1043D0000302040604051D1E1E1E1D1D1D1D1E1E9E
:1043E0001E1E1D1D0001050706020301030204062F
:1043F00004051F2020201F1F1F1F202020201F1FFB
:104400000101050707030402030204060506212231
:1044100022222121212122222222212107050201FB
:104420000306042323232323232307050201030672
:10443000042424242424242407050201030604253B
:104440002525252525250705020103060426262600
:1044500026262626000107020627272727270000F1
:10446000000000000000131211100F0E0D0C0000D0
:104470000000212524260000000000118002000019
:10448000000002060000200039000F000000401567
:1044900000204004001000223F0006005B044F048F
:1044A00066046D047D0407007F046F0400000000B3
:1044B000000A000080200000FFFF7704790A39001D
:1044C000B020790071007D04760406000E00700AA9
:1044D0003800B602B6083F0073043F08730C6D0441
:1044E00001113E0030223628802A6E04092239004C
:1044F00080080F0001000800000158107C045800DB
:104500005E04582071040C0C740404000E00700C3E
:104510003800541454045C04730467045004080CF9
:1045200078001C0010201428802A0C084820000065
:1045300001000000030040000C000000000000002B
:104540000000000004000000020000000400000061
:1045500003000000430000001800002000000000DD
:08456000F4BBFF7F0100000025
:104568009903000000000000010000002C01000079
:10457800006CDC0200800000000000000000000069
:104588000000000000000000000000000000000023
:10459800000000000000000054450000000000007A
:1045A8000000000000000000000000000000000003
:1045B80000000000000000000000000000000000F3
:1045C80000000000000000000000000000000000E3
:1045D800000000000000000000000000180000209B
:0845E8002501000001010000A3
:04000003000020F1E8
:00000001FF
