:1000000000000220013F0000373F0000393F0000A0
:100010003B3F00003D3F00003F3F0000353F0000F8
:10002000353F0000353F0000353F0000011E000055
:10003000433F0000353F0000251F0000611F000006
:10004000493F00004B3F00004D3F00004F3F000084
:10005000513F0000533F0000553F0000573F000054
:10006000593F00005B3F00005D3F00005F3F000024
:10007000613F0000633F0000653F0000673F0000F4
:10008000693F00006B3F00006D3F00006F3F0000C4
:10009000713F0000733F0000753F0000773F000094
:1000A000793F00007B3F00007D3F00007F3F000064
:1000B000813F0000833F0000853F0000C503000032
:1000C000893F00008B3F00008D3F00008F3F000004
:1000D000913F0000933F0000953F000000000000AA
:1000E0000000000000000000000000000000000010
:1000F0000000000000000000000000000000000000
:1001000010B5054C237833B9044810B10448AFF357
:1001100000800121217010BD7C0000200000000043
:100120005849000008B5064B1BB106480649AFF315
:1001300000800648016811B1054A02B1904708BD28
:100140000000000058490000800000207C000020D2
:1001500000000000154B002B08BF134B9D46A3F574
:10016000803A00218B460F461348144A121A04F0B5
:1001700006FA0F4B002B00D098470E4B002B00D0F7
:1001800098470020002104460D4600200C4900221B
:10019000002304F08FF904F0C3F92046294600F04B
:1001A00039FA04F091F900BF0000080000000220B5
:1001B00000000000000000007C000020002500205E
:1001C000F544000080B483B000AF0346FB714FF4E8
:1001D0006143CEF2000397F907204FEA5212F979F2
:1001E00001F01F014FF0010000FA01F143F8221065
:1001F00007F10C07BD4680BC704700BF80B483B0D8
:1002000000AF0346FB714FF46143CEF2000397F950
:1002100007204FEA5212F97901F01F014FF0010057
:1002200000FA01F102F1600243F8221007F10C0715
:10023000BD4680BC704700BF80B483B000AF0346AA
:100240003960FB7197F90730002B10DA4FF46D43DA
:10025000CEF20003FA7902F00F02A2F104013A682B
:10026000D2B24FEA4212D2B25B181A760DE04FF4C6
:100270006143CEF2000397F907103A68D2B24FEA11
:100280004212D2B25B1883F8002307F10C07BD4677
:1002900080BC704780B487B000AFF860B9607A6006
:1002A000FB6803F104734FEAC302BB68D3184FEA3B
:1002B00083037B617B697A681A6007F11C07BD467E
:1002C00080BC704780B483B000AF78604FF4805337
:1002D000C4F208037A681A6307F10C07BD4680BCB4
:1002E000704700BF80B483B000AF78604FF4805394
:1002F000C4F208034FF48052C4F20802516B7A68CA
:100300006FEA02020A405A6307F10C07BD4680BC3F
:10031000704700BF80B483B000AF78604FF4805363
:10032000C4F208034FF48052C4F20802516B7A6899
:100330000A435A6307F10C07BD4680BC704700BFF3
:1003400080B582B000AF0346FB71FB7983F00103F7
:10035000DBB2002B08D14FF48053C4F208031B68B2
:1003600003F00303002B0AD1FB79002B07D044F2E2
:10037000BC50C0F2000040F2211100F0A5F9FB7959
:10038000002B0AD04FF48050C4F208004FF0030154
:100390004FF00002FFF77EFF09E04FF48050C4F2F7
:1003A00008004FF003014FF00102FFF773FF07F160
:1003B0000807BD4680BD00BF80B500AF03F0F8FC64
:1003C00080BD00BF80B500AF4EF60453CEF20003EF
:1003D0004FF080521A604FF00000FFF7B1FF40F27B
:1003E0009803C2F200031B684FF00000194600F0AA
:1003F000CBFA00F0E7FA01F087FD02F05BFB4FF06B
:10040000000001F08BFD4FF00700FFF75BFF00F0ED
:10041000D9FA80BDB0B586B000AF40F29803C2F201
:1004200000034FF032021A604FF48640C0F204001D
:100430004FF0010100F044FC4FF001004FF00001CB
:1004400001F03EFB44F20C63C0F2000307F1040428
:100450001D460FCD0FC42B6823604FF002037B7144
:100460004FF440533B814FF00103FB6007F104035D
:10047000184600F0D9F94FF00200FFF733FF4FF0B4
:100480001F004FF0FF01FFF7D7FE4FF01F00FFF7EF
:10049000B5FE4FF01F00FFF795FE4FF000004FF044
:1004A000320100F071FA4FF00200FFF70BFF4FF03E
:1004B0000200FFF72FFF00F085FA07F11807BD468D
:1004C000B0BD00BF80B582B000AF48F2FC13C0F6EB
:1004D000E0731B687B603B46184601F007FB7B68B6
:1004E0004FEA1363102B10D17B78032B0DD148F208
:1004F000C003C4F20C0348F2C002C4F20C0212683A
:1005000022F0500242F010021A6007F10807BD46BF
:1005100080BD00BF80B584B000AF786042F2F04388
:10052000C2F20003FB6000E000BF42F2F843C2F2F7
:1005300000031B681846F9684FF0FF324FF00003C4
:1005400001F09CFE0346002BEED0F86803F052FB4E
:10055000EAE700BF80B584B000AF786040F29C034A
:10056000C2F200031B6803F1010303F00F0240F223
:100570009C03C2F200031A6040F29C03C2F2000323
:100580001B68184603F076FE42F2F043C2F2000305
:10059000FB6040F29C03C2F200031B68092B02DDE2
:1005A0004FF0310301E04FF03003FA68137040F26E
:1005B0009C03C2F20003196846F26763C6F26663E1
:1005C00083FB01234FEAA3024FEAE173D21A1346D9
:1005D0004FEA83039B184FEA4303CA1AD3B203F1CD
:1005E0003003DAB2FB685A70FB684FF000029A7071
:1005F00042F2F843C2F200031B681846F9684FF054
:10060000FF324FF0000301F059FD4FF0140002F0EB
:100610000BF9A3E780B584B004AFFFF753FF03F0F5
:1006200033FF03F0E9FD4FF0000003F06FFE4FF0E1
:10063000010003F06BFE4FF010004FF008014FF087
:10064000000201F0FDFC024642F2F843C2F2000350
:100650001A604FF0010300934FF0000301934FF035
:10066000000302934FF00003039340F25550C0F291
:10067000000044F22061C0F200014FF096024FF0FA
:10068000000302F00DF84FF0010300934FF0000358
:1006900001934FF0000302934FF00003039340F2E5
:1006A0001550C0F2000044F22C61C0F200014FF07E
:1006B00096024FF0000301F0F3FF02F0E3F84FF071
:1006C00000031846BD4680BD80B483B000AF78609B
:1006D0003960FEE780B487B000AFF860B9607A6037
:1006E000FB6803F104734FEAC302BB68D3184FEAF7
:1006F00083037B617B697A681A6007F11C07BD463A
:1007000080BC704780B582B000AF0346FB71FB79B7
:1007100083F00103DBB2002B08D14FF48053C4F205
:1007200008031B6803F00303002B0AD1FB79002B9D
:1007300007D044F23C60C0F2000040F22111FFF704
:10074000C3FFFB79002B0AD04FF48050C4F208009D
:100750004FF003014FF00002FFF7BCFF09E04FF438
:100760008050C4F208004FF003014FF00102FFF780
:10077000B1FF07F10807BD4680BD00BF80B582B05C
:1007800000AF0346FB71FB7941F23800C4F2080068
:100790004FF000011A46FFF79DFF07F10807BD461D
:1007A00080BD00BF90B587B000AF78607B68002B3C
:1007B00003D07B68B3F5004F07D944F28C60C0F2D8
:1007C00000004FF04701FFF77FFF7B683B613B690B
:1007D000B3FA83F4FC60FB68DBB2C3F11F037B61F7
:1007E0007B69184607F11C07BD4690BD80B483B0F5
:1007F00000AF78604FF48053C4F208039B6B03F0A2
:100800000103002B0AD100BF4FF48053C4F2080348
:10081000DA6B7B681340002BF6D100E000BF07F1D4
:100820000C07BD4680BC704780B584B000AF7860CF
:100830007B68002B07D144F28C60C0F200004FF0BF
:100840008201FFF741FF7B689B68002B03D07B6828
:100850009B68802B07D944F28C60C0F200004FF0F7
:100860008401FFF731FF7B68DB68062B07D944F270
:100870008C60C0F200004FF08701FFF725FF7B6816
:100880001B78002B12D07B681B7883F00103DBB24E
:10089000002B03D17B685B78002B07D144F28C607E
:1008A000C0F200004FF08A01FFF70EFF7B689B88C3
:1008B000B3F5405F10D17B689B88B3F5405F03D1EF
:1008C0007B689B7C002B07D044F28C60C0F2000058
:1008D0004FF08D01FFF7F8FE7B689B681846FFF725
:1008E00061FFF8607B681B78002B03D04FF001009C
:1008F000FFF744FF4FF00100FFF778FF4FF48053FC
:10090000C4F208037A68927C5A607B685B7843F093
:100910000803DBB21A467B689B784FEA83031A43CD
:100920007B685B7C4FEA03131A437B68DB684FEA02
:1009300043131A43FB684FEA03231A437B689B88DF
:100940001A437B681B7C4FEA83331343BB604FF42D
:100950008053C4F208034FF0FF321A634FF4805300
:10096000C4F20803BA681A607B681B78002B07D0B2
:100970004FF00100FFF7C6FE4FF00000FFF7FEFE4C
:1009800007F11007BD4680BD80B582B000AF78602A
:1009900039607B68002B07D044F28C60C0F2000005
:1009A0004FF0C901FFF790FE4FF00200FFF71EFF66
:1009B0004FF48053C4F208033A68DA6007F108077D
:1009C000BD4680BD80B500AF4FF48050C4F2080032
:1009D0004FF003014FF00102FFF77CFE4FF480500F
:1009E000C4F208004FF003014FF00002FFF772FE5F
:1009F00080BD00BF80B487B000AFF860B9607A6096
:100A0000FB6803F104734FEAC302BB68D3184FEAD3
:100A100083037B617B697A681A6007F11C07BD4616
:100A200080BC704790B587B000AF78607B68002BC2
:100A300003D07B68B3F5004F07D944F2A060C0F241
:100A400000004FF08801FFF73FFE7B683B613B6988
:100A5000B3FA83F4FC60FB68DBB2C3F11F037B6174
:100A60007B69184607F11C07BD4690BD80B483B072
:100A700000AF78607B684FF0010202FA03F318467A
:100A800007F10C07BD4680BC704700BF80B483B03F
:100A900000AF78604FF40043C4F20C035B6D03F0C9
:100AA0000103002B0AD100BF4FF40043C4F20C0332
:100AB0001A6D7B681340002BF6D100E000BF07F1F0
:100AC0000C07BD4680BC704790B585B000AF78601C
:100AD0007B684FEA131303F00F03BB60BB6803F19D
:100AE000FF33042B00F2DA8001A252F823F000BF9A
:100AF0001F0B0000390B0000530B00002F0C0000EF
:100B0000050B00004FF40043C4F20C031B6803F410
:100B1000E0334FEA933303F10103FB60CAE04FF483
:100B20000043C4F20C039B6803F00F03FB60F868FA
:100B3000FFF79CFFF860BDE04FF40043C4F20C03E4
:100B40005B6803F00F03FB60F868FFF78FFFF86046
:100B5000B0E07B6842F23042C0F20A02934228D0F1
:100B600042F23042C0F20A02934206D841F23042C9
:100B7000C0F2080293420DD04CE04FF03002C0F2B8
:100B80000C02934224D04FF48662C0F210029342CA
:100B900033D03FE04FF40043C4F20C039B6E03F0EC
:100BA000F0034FEA1313FB60F868FFF75FFFF8608C
:100BB0003CE04FF40043C4F20C039B6E03F47063FB
:100BC0004FEA1323FB60F868FFF750FFF8602DE051
:100BD0004FF40043C4F20C039B6E03F440534FEAFE
:100BE00013344FF01000FFF71DFF0346E318FB60BE
:100BF000F868FFF73BFFF86018E04FF40043C4F2D9
:100C00000C039B6E03F00303FB60F868FFF72EFFF5
:100C1000F8600BE044F2A060C0F2000040F2BF2197
:100C2000FFF752FD4FF00103FB6000BF42E07A681E
:100C30004FF4A863C0F214039A4206D04FF4AA53AB
:100C4000C0F216039A420DD01BE04FF40043C4F2E9
:100C50000C031B6F03F00303FB60F868FFF706FF4C
:100C6000F8601AE04FF40043C4F20C031B6F03F06A
:100C700030034FEA1313FB60F868FFF7F7FEF860E4
:100C80000BE044F2A060C0F2000040F2D921FFF76F
:100C90001BFD4FF00103FB6000BF0BE044F2A060BE
:100CA000C0F200004FF43871FFF70EFD4FF0010362
:100CB000FB6000BFFB68184607F11407BD4690BDF6
:100CC00090B587B000AF78600B46FB704FF0000323
:100CD0003B617B684FEA132303F00F0303F1FF33FB
:100CE000052B66D801A252F823F000BF050D0000C5
:100CF000110D00001D0D0000830D0000950D00007A
:100D0000A70D000048F20803C4F20C037B615AE00F
:100D100048F24403C4F20C037B6154E048F2400300
:100D2000C4F20C037B614FF0510000F063F80346FE
:100D3000042B47D103F0F2F904464FF02000C0F233
:100D40000400FFF7C1FE0346B4FBF3F24FF49043F7
:100D5000C0F2E8139A4235D94FF40040C4F20C00B7
:100D60004FF01E014FF00102FFF744FE48F204006D
:100D7000C4F20C004FF008014FF00102FFF73AFEF9
:100D800020E048F25803C4F20C037B614FF00103EA
:100D90003B6118E048F26003C4F20C037B614FF042
:100DA00010033B610FE048F27803C4F20C037B614F
:100DB00009E044F2A060C0F2000040F20E41FFF7EB
:100DC00083FC12E000BF7B684FEA133303F01F037C
:100DD000FB603B69002B02D03869FFF757FEFB78B8
:100DE0007869F9681A46FFF705FE07F11C07BD464A
:100DF00090BD00BF80B584B000AF78604FF00103B4
:100E0000FB737B6803F00F03BB60BB6803F1FF3328
:100E1000042B00F2B68001A252F823F0310E00003C
:100E2000750E0000C50E0000150F0000410F0000F8
:100E30004FF40043C4F20C03DB6A03F47053B3F5C0
:100E4000805F0AD0B3F5005F03D0B3F5006F08D020
:100E50000BE04FF00203FB730BE04FF00303FB7357
:100E600007E04FF00403FB7303E04FF00503FB734F
:100E700000BF92E04FF40043C4F20C039B6A03F0FE
:100E80000303022B07D0032B09D0012B0BD14FF00A
:100E90000303FB7315E04FF00203FB7311E04FF007
:100EA0000603FB730DE04FF40043C4F20C039B6A8E
:100EB00003F48033002B03D04FF00903FB7300E0F1
:100EC00000BF6AE04FF40043C4F20C039B6A03F0D6
:100ED0000C03082B07D00C2B09D0042B0BD14FF09F
:100EE0000303FB7315E04FF00203FB7311E04FF0B7
:100EF0000603FB730DE04FF40043C4F20C039B6A3E
:100F000003F48013002B03D04FF00903FB7300E0C0
:100F100000BF42E04FF40043C4F20C031B6803F02F
:100F20008053002B03D0B3F1805F04D007E04FF073
:100F30000703FB7303E04FF00803FB7300BF2CE0D3
:100F40004FF40043C4F20C03DB6A03F46033B3F5DF
:100F5000803F09D0B3F5003F0AD0B3F5004F0BD165
:100F60004FF00803FB730BE04FF00203FB7307E045
:100F70004FF00303FB7303E04FF00103FB7300BF6B
:100F80000BE044F2A060C0F2000040F25651FFF7BF
:100F90009BFB4FF00003FB7300BFFB7B184607F180
:100FA0001007BD4680BD00BF80B500AF03F002F85A
:100FB00080BD00BF80B400AF4FF40043C4F20C0307
:100FC0004FF00002C3F88420BD4680BC704700BFCC
:100FD00080B400AF4FF40043C4F20C0345F60E0298
:100FE000C3F88420BD4680BC704700BF80B582B086
:100FF00000AF4FF40043C4F20C03D3F8843003F085
:1010000001037B60FFF7E4FF4FF40043C4F20C03DD
:1010100040F2A002C2F20002128802F4AA721A621E
:1010200040F2A003C2F200031B8803F47053B3F52F
:10103000805F06D0B3F5005F15D0B3F5006F24D004
:1010400035E000BF4FF40043C4F20C03DB6A03F049
:101050008003002BF6D04FF40043C4F20C034FF092
:1010600003025A6224E000BF4FF40043C4F20C03B1
:10107000DB6A03F40073002BF6D04FF40043C4F294
:101080000C034FF004025A6212E000BF4FF4004319
:10109000C4F20C03DB6A03F00803002BF6D04FF414
:1010A0000043C4F20C034FF002025A6200E000BF9A
:1010B00040F2A003C2F200031B8803F00103002BDF
:1010C00006D14FF40043C4F20C034FF002021A623F
:1010D0007B68002B01D0FFF76DFF07F10807BD46C5
:1010E00080BD00BF80B582B000AF0346FB714FF4F6
:1010F0000043C4F20C03DB6A9AB240F2A003C2F2CE
:1011000000031A804FF46D43CEF200034FF46D429A
:10111000CEF20002126942F004021A6130BFFB797C
:10112000002B02D0FFF762FF0AE040F2A003C2F2F8
:1011300000031B8803F48063002B01D1FFF734FF09
:1011400007F10807BD4680BD80B584B000AF0346F7
:10115000FB714FF40043C4F20C03DB6A9AB240F215
:10116000A003C2F200031A804FF40043C4F20C0340
:10117000D3F8843003F00103FB60FFF729FF4FF43D
:101180000043C4F20C034FF420721A62FB68002B78
:1011900001D0FFF70FFF4FF46D43CEF200034FF481
:1011A0006D42CEF20002126942F004021A6130BFB1
:1011B000FB79002B02D0FFF719FF0AE040F2A003F1
:1011C000C2F200031B8803F48063002B01D1FFF7F8
:1011D000EBFE07F11007BD4680BD00BF80B483B0B1
:1011E00000AF4FF4C043C4F20C034AF6E8529A60D1
:1011F0004FF000037B6011E04FF4C043C4F20C03D6
:101200004FF008021A604FF4C043C4F20C034FF0D1
:101210000C021A607B6803F101037B607B68032B7F
:10122000EADD4FF4C043C4F20C034FF008021A6029
:1012300007F10C07BD4680BC704700BF90B585B074
:1012400000AFB9607B600346FB731346BB73FB7B47
:10125000052B02D8BB680F2B07D944F2B460C0F24B
:1012600000004FF0CC01FFF72FFABB7B002B2DD0F5
:101270007B68002B15D04FF4C042C4F20002F97B0A
:10128000BB684FF0010000FA03F318460B464FEA23
:10129000C3035B184FEA8303D31803F110031860EC
:1012A00014E04FF4C042C4F20002F97BBB684FF077
:1012B000010000FA03F318460B464FEAC3035B181C
:1012C0004FEA8303D31803F110035860BB68072B60
:1012D0002BD84FF4C042C4F20002F87B4FF4C04157
:1012E000C4F20001FC7B23464FEAC3031B194FEAFB
:1012F0008303CB185968BB684FEA83034FF00F0490
:1013000004FA03F36FEA03031940BC7BBB684FEA9E
:10131000830304FA03F3194303464FEAC3031B187C
:101320004FEA8303D318596036E04FF4C042C4F249
:101330000002F87B4FF4C041C4F20001FC7B23465D
:101340004FEAC3031B194FEA8303CB1803F10803C9
:101350001968BB6803F18043A3F108034FEA8303D4
:101360004FF00F0404FA03F36FEA03031940BC7B48
:10137000BB6803F18043A3F108034FEA830304FA37
:1013800003F3194303464FEAC3031B184FEA8303D1
:10139000D31803F108031960BB7B002B2DD17B68A8
:1013A000002B15D04FF4C042C4F20002F97BBB6899
:1013B0004FF0010000FA03F318460B464FEAC3034F
:1013C0005B184FEA8303D31803F11003186014E08D
:1013D0004FF4C042C4F20002F97BBB684FF0010039
:1013E00000FA03F318460B464FEAC3035B184FEAB3
:1013F0008303D31803F11003586007F11407BD46A7
:1014000090BD00BF80B487B000AFF860B9607A606B
:10141000FB6803F104734FEAC302BB68D3184FEAB9
:1014200083037B617B697A681A6007F11C07BD46FC
:1014300080BC704780B584B000AFF860B9601346D7
:10144000FB71FB68072B07DD44F2C860C0F20000A7
:1014500040F20911FFF738F9BB68272B07DD44F28A
:10146000C860C0F200004FF48871FFF72DF9FB68E7
:10147000072B00F2FB8001A252F823F09D1400001C
:10148000D7140000111500004B1500008515000051
:10149000BF150000F915000033160000BB681F2BB4
:1014A0000ADCBA68FB794AF24000C4F2080011462F
:1014B0001A46FFF7A7FFE2E0BB68A3F12003BB6079
:1014C000BA68FB794AF25000C4F2080011461A4685
:1014D000FFF798FFD3E0BB681F2B0ADCBA68FB79E3
:1014E0004AF24400C4F2080011461A46FFF78AFF88
:1014F000C5E0BB68A3F12003BB60BA68FB794AF280
:101500005400C4F2080011461A46FFF77BFFB6E00C
:10151000BB681F2B0ADCBA68FB794AF24800C4F2A8
:10152000080011461A46FFF76DFFA8E0BB68A3F15B
:101530002003BB60BA68FB794AF25800C4F2080085
:1015400011461A46FFF75EFF99E0BB681F2B0ADCC5
:10155000BA68FB794AF24C00C4F2080011461A46F8
:10156000FFF750FF8BE0BB68A3F12003BB60BA68B4
:10157000FB794AF25C00C4F2080011461A46FFF7F4
:1015800041FF7CE0BB681F2B0ADCBA68FB794AF29A
:10159000CC00C4F2080011461A46FFF733FF6EE094
:1015A000BB68A3F12003BB60BA68FB794AF2B400C0
:1015B000C4F2080011461A46FFF724FF5FE0BB683B
:1015C0001F2B0ADCBA68FB794AF2D000C4F208008B
:1015D00011461A46FFF716FF51E0BB68A3F120033E
:1015E000BB60BA68FB794AF2B800C4F20800114641
:1015F0001A46FFF707FF42E0BB681F2B0ADCBA68F8
:10160000FB794AF2D400C4F2080011461A46FFF7EB
:10161000F9FE34E0BB68A3F12003BB60BA68FB7934
:101620004AF2BC00C4F2080011461A46FFF7EAFE6F
:1016300025E0BB681F2B0ADCBA68FB794AF2D800A8
:10164000C4F2080011461A46FFF7DCFE17E0BB683B
:10165000A3F12003BB60BA68FB794AF2C000C4F270
:10166000080011461A46FFF7CDFE08E044F2C860B4
:10167000C0F2000040F28B11FFF726F800BF07F11F
:101680001007BD4680BD00BF80B586B000AFF860D2
:10169000B9607A60FB68072B07DD44F2C860C0F2CE
:1016A000000040F2A511FFF70FF8FB68072B00F2CE
:1016B000E38001A252F823F0D91600000B170000B6
:1016C0003D1700006F170000A1170000D71700009A
:1016D0000D180000431800004FF42043C4F2080323
:1016E0001B6C7B61BB686FEA03037A6913407B6103
:1016F000BA687B6813407A6913437B614FF42043D7
:10170000C4F208037A691A64BFE04FF42043C4F2BC
:1017100008035B6C7B61BB686FEA03037A69134063
:101720007B61BA687B6813407A6913437B614FF42D
:101730002043C4F208037A695A64A6E04FF42043B8
:10174000C4F208039B6C7B61BB686FEA03037A6990
:1017500013407B61BA687B6813407A6913437B61ED
:101760004FF42043C4F208037A699A648DE04FF481
:101770002043C4F20803DB6C7B61BB686FEA0303A0
:101780007A6913407B61BA687B6813407A691343B6
:101790007B614FF42043C4F208037A69DA6474E091
:1017A0004FF42043C4F20803D3F8CC307B61BB680C
:1017B0006FEA03037A6913407B61BA687B68134060
:1017C0007A6913437B614FF42043C4F208037A69BA
:1017D000C3F8CC2059E04FF42043C4F20803D3F8F7
:1017E000D0307B61BB686FEA03037A6913407B6189
:1017F000BA687B6813407A6913437B614FF42043D6
:10180000C4F208037A69C3F8D0203EE04FF42043C5
:10181000C4F20803D3F8D4307B61BB686FEA0303DA
:101820007A6913407B61BA687B6813407A69134315
:101830007B614FF42043C4F208037A69C3F8D420D3
:1018400023E04FF42043C4F20803D3F8D8307B617F
:10185000BB686FEA03037A6913407B61BA687B68EF
:1018600013407A6913437B614FF42043C4F20803A9
:101870007A69C3F8D82008E044F2C860C0F20000DA
:101880004FF4F371FEF720FF00BF07F11807BD46C4
:1018900080BD00BF80B586B000AFF860B9607A60E7
:1018A000FB68072B07DD44F2C860C0F2000040F27D
:1018B000FF11FEF709FFFB68072B00F2E38001A28E
:1018C00052F823F0E518000017190000491900002C
:1018D0007B190000AD190000E3190000191A00007F
:1018E0004F1A00004FF42043C4F208031B6D7B61C4
:1018F000BB686FEA03037A6913407B61BA687B684F
:1019000013407A6913437B614FF42043C4F2080308
:101910007A691A65B7E04FF42043C4F208035B6D9F
:101920007B61BB686FEA03037A6913407B61BA6825
:101930007B6813407A6913437B614FF42043C4F200
:1019400008037A695A659EE04FF42043C4F2080305
:101950009B6D7B61BB686FEA03037A6913407B610F
:10196000BA687B6813407A6913437B614FF4204364
:10197000C4F208037A699A6585E04FF42043C4F203
:101980000803DB6D7B61BB686FEA03037A69134070
:101990007B61BA687B6813407A6913437B614FF4BB
:1019A0002043C4F208037A69DA656CE04FF42043FF
:1019B000C4F20803D3F8B4307B61BB686FEA030359
:1019C0007A6913407B61BA687B6813407A69134374
:1019D0007B614FF42043C4F208037A69C3F8B42052
:1019E00051E04FF42043C4F20803D3F8B8307B61D0
:1019F000BB686FEA03037A6913407B61BA687B684E
:101A000013407A6913437B614FF42043C4F2080307
:101A10007A69C3F8B82036E04FF42043C4F20803D3
:101A2000D3F8BC307B61BB686FEA03037A6913406B
:101A30007B61BA687B6813407A6913437B614FF41A
:101A40002043C4F208037A69C3F8BC201BE04FF4BA
:101A50002043C4F20803D3F8C0307B61BB686FEA4F
:101A600003037A6913407B61BA687B6813407A6923
:101A700013437B614FF42043C4F208037A69C3F82F
:101A8000C02000E000BF07F11807BD4680BD00BFC1
:101A900080B487B000AFF860B9607A60FB6803F18A
:101AA00004734FEAC302BB68D3184FEA83037B6118
:101AB0007B697A681A6007F11C07BD4680BC7047D5
:101AC00080B582B000AF02460B46FA71BB71FA795D
:101AD000BB794FF42040C4F20C0011461A46FFF7C0
:101AE000D7FF07F10807BD4680BD00BF80B584B0B1
:101AF00000AF78607B68002B07D144F2DC60C0F255
:101B000000004FF03F01FEF7DFFD4FF6D073CEF23D
:101B10000F031B69DBB203F03F03DAB27B681A7074
:101B20004FF6D073CEF20F039B69DBB223F00F03A5
:101B3000FB734FF6D073CEF20F03DB6903F0F003B3
:101B40004FEA1313DAB2FB7B1343FB737B68FA7B18
:101B50005A7007F11007BD4680BD00BF80B584B044
:101B600000AF78604FF00003FB607B6803F0070371
:101B7000002B05D07B6823F0070303F108037B608B
:101B800000F0BEFE42F2D433C2F200031B68002B09
:101B900008D1214B23F007031A4642F2D433C2F294
:101BA00000031A6042F2D033C2F200031A687B6865
:101BB000D21842F21F339A4225D842F2D033C2F2F1
:101BC00000031A687B68D21842F2D033C2F20003D5
:101BD0001B689A4217D942F2D433C2F200031A6842
:101BE00042F2D033C2F200031B68D318FB6042F20A
:101BF000D033C2F200031A687B68D21842F2D033A5
:101C0000C2F200031A6000F08DFEFB68184607F16F
:101C10001007BD4680BD00BFB000002080B483B077
:101C200000AF786007F10C07BD4680BC704700BF6D
:101C300080B483B000AF78607B6803F108027B68F2
:101C40005A607B684FF0FF329A607B6803F10802AC
:101C50007B68DA607B6803F108027B681A617B6845
:101C60004FF000021A6007F10C07BD4680BC7047B8
:101C700080B483B000AF78607B684FF000021A61D7
:101C800007F10C07BD4680BC704700BF80B485B02B
:101C900000AF786039607B685B68FB603B68FA681E
:101CA0005A60FB689A683B689A60FB689B683A6870
:101CB0005A60FB683A689A603B687A681A617B6888
:101CC0001B6803F101027B681A6007F11407BD4627
:101CD00080BC704780B485B000AF786039603B68E5
:101CE0001B68BB60BB68B3F1FF3F03D17B681B6916
:101CF000FB600DE07B6803F10803FB6002E0FB681A
:101D00005B68FB60FB685B681A68BB689A42F6D93F
:101D1000FB685A683B685A603B685B683A689A603F
:101D20003B68FA689A60FB683A685A603B687A6870
:101D30001A617B681B6803F101027B681A6007F176
:101D40001407BD4680BC704780B485B000AF786092
:101D50007B685B687A6892689A607B689B687A683F
:101D600052685A607B681B69FB60FB685A687B6835
:101D70009A4203D17B689A68FB685A607B684FF08F
:101D800000021A61FB681B6803F1FF32FB681A60EE
:101D9000FB681B68184607F11407BD4680BC7047F6
:101DA00080B485B000AFF860B9607A60FB68A3F1D9
:101DB0000403FB60FB684FF080721A60FB68A3F1BC
:101DC0000403FB60BA68FB681A60FB68A3F10403B4
:101DD000FB60FB684FF000021A60FB68A3F114037C
:101DE000FB607A68FB681A60FB68A3F12003FB6064
:101DF000FB68184607F11407BD4680BC704700BF5A
:101E0000064B19680868B0E8F00F80F309884FF0B6
:101E1000000080F311884EF00D0E7047D82300208B
:101E200003480068006880F3088862B600DF00BFDE
:101E300008ED00E080B500AF4EF62053CEF200036F
:101E40004EF62052CEF20002126842F47F021A606F
:101E50004EF62053CEF200034EF62052CEF2000290
:101E6000126842F07F421A60FEF7D4FA40F2000393
:101E7000C2F200034FF000021A60FFF7D1FF4FF0EB
:101E80000003184680BD00BF80B400AF4EF6045377
:101E9000CEF200034FF080521A60BFF34F8FBFF3B2
:101EA0006F8FBD4680BC704780B500AF00F02CF846
:101EB00040F20003C2F200031B6803F1010240F28A
:101EC0000003C2F200031A60BFF34F8FBFF36F8F9E
:101ED00080BD00BF80B500AF40F20003C2F2000336
:101EE0001B6803F1FF3240F20003C2F200031A60E4
:101EF00040F20003C2F200031B68002B03D14FF035
:101F0000000000F00BF880BDEFF311804FF0BF012F
:101F100081F3118870474FF00003184680F3118851
:101F2000704700BFEFF309800C4B1A6820E9F00FEF
:101F300010602DE908404FF0BF0080F3118800F0D9
:101F4000C7FE4FF0000080F31188BDE80840196813
:101F50000868B0E8F00F80F309887047D8230020A4
:101F600080B500AFFFF7D0FF00F0A4FD0346002BC3
:101F700006D04EF60453CEF200034FF080521A60A2
:101F80004FF00000FFF7CAFF80BD00BF80B584B0EE
:101F900000AF786039607B68FB60FFF785FFFB6806
:101FA0001A68FB68DB6BF968096C01FB03F3D21854
:101FB000FB685A60FB684FF000029A63FB681A687E
:101FC000FB689A60FB681A68FB68DB6B03F1FF3300
:101FD000F968096C01FB03F3D218FB68DA60FB684F
:101FE0004FF0FF325A64FB684FF0FF329A643B684F
:101FF000002B0FD1FB681B69002B17D0FB6803F186
:102000001003184600F02AFF0346012B0ED1FFF7FC
:102010003BFF0BE0FB6803F110031846FFF708FED7
:10202000FB6803F124031846FFF702FEFFF752FF97
:102030004FF00103184607F11007BD4680BD00BFF1
:1020400080B588B000AFF860B9601346FB714FF0FF
:102050000003FB61FB68002B29D04FF04C00FFF719
:102060007DFDB861BB69002B21D0FB68BA6802FB1B
:1020700003F303F101037B617869FFF76FFD02460B
:10208000BB691A60BB691B68002B0DD0BB69FA687D
:10209000DA63BB69BA681A64B8694FF00101FFF7E7
:1020A00075FFBB69FB6102E0B869FFF7B7FDFB692B
:1020B000184607F12007BD4680BD00BF80B588B037
:1020C00000AFF860B9607A603B604FF00003FB61DD
:1020D000FB68BB6100E000BFFFF7E6FEBB699A6BDF
:1020E000BB69DB6B9A4202D33B68022B18D1B869FB
:1020F000B9683A6800F088F9BB695B6A002B0AD0BE
:10210000BB6903F12403184600F0A8FE0346012B27
:1021100001D1FFF7B9FEFFF7DDFE4FF001035DE0EF
:102120007B68002B04D1FFF7D5FE4FF0000355E08C
:10213000FB69002B07D107F11003184600F0F0FEF1
:102140004FF00103FB61FFF7C5FE00F0D9FBFFF77D
:10215000ABFEBB695B6CB3F1FF3F03D1BB694FF0D2
:1021600000025A64BB699B6CB3F1FF3F03D1BB69AA
:102170004FF000029A64FFF7ADFE07F1100207F17D
:1021800004031046194600F0E3FE0346002B1ED15F
:10219000B86900F039FA0346002B12D0BB6903F18D
:1021A00010027B681046194600F0F2FDB86900F095
:1021B000C1F900F0B7FB0346002B8CD1FFF764FE9A
:1021C00089E7B86900F0B6F900F0ACFB83E7B869BD
:1021D00000F0B0F900F0A6FB4FF00003184607F13D
:1021E0002007BD4680BD00BF80B588B000AFF86055
:1021F000B9607A603B60FB68BB61FFF785FE786180
:10220000BB699A6BBB69DB6B9A4202D33B68022BBA
:1022100028D1B869B9683A6800F0F6F8BB699B6CD8
:10222000B3F1FF3F14D1BB695B6A002B16D0BB69C9
:1022300003F12403184600F011FE0346002B0DD0D5
:102240007B68002B0AD07B684FF001021A6005E022
:10225000BB699B6C03F10102BB699A644FF00103F7
:10226000FB6102E04FF00003FB617869FFF756FE67
:10227000FB69184607F12007BD4680BD80B58AB0CE
:1022800000AFF860B9607A603B604FF000037B629A
:10229000FB683B6200E000BFFFF706FE3B6A9B6BFA
:1022A000002B3FD03B6ADB68FB61386AB96800F0FD
:1022B00019F93B68002B1ED13B6A9B6B03F1FF327F
:1022C0003B6A9A633B6A1B68002B04D101F020F83B
:1022D00002463B6A5A603B6A1B69002B1DD03B6A71
:1022E00003F11003184600F0B9FD0346012B14D189
:1022F000FFF7CAFD11E03B6AFA69DA603B6A5B6A84
:10230000002B0AD03B6A03F12403184600F0A6FD17
:102310000346002B01D0FFF7B7FDFFF7DBFD4FF0C1
:1023200001036BE07B68002B04D1FFF7D3FD4FF076
:10233000000363E07B6A002B07D107F11403184602
:1023400000F0EEFD4FF001037B62FFF7C3FD00F0EC
:10235000D7FAFFF7A9FD3B6A5B6CB3F1FF3F03D1EE
:102360003B6A4FF000025A643B6A9B6CB3F1FF3F3B
:1023700003D13B6A4FF000029A64FFF7ABFD07F10F
:10238000140207F104031046194600F0E1FD03466C
:10239000002B2CD1386A00F01DF90346002B20D009
:1023A0003B6A1B68002B08D1FFF77EFD3B6A5B6828
:1023B000184600F0E1FFFFF78DFD3B6A03F12402B0
:1023C0007B681046194600F0E3FC386A00F0B2F86A
:1023D00000F0A8FA0346002B7FF45DAFFFF754FD31
:1023E00059E7386A00F0A6F800F09CFA53E7386A1B
:1023F00000F0A0F800F096FA4FF00003184607F13D
:102400002807BD4680BD00BF80B584B000AFF8602E
:10241000B9607A60FB681B6C002B0DD1FB681B68F0
:10242000002B55D1FB685B68184601F019F8FB6872
:102430004FF000025A604BE07B68002B1AD1FB681A
:102440009A68FB681B6C1046B9681A4602F08EF851
:10245000FB689A68FB681B6CD218FB689A60FB6883
:102460009A68FB685B689A4232D3FB681A68FB681B
:102470009A602DE0FB68DA68FB681B6C1046B9684F
:102480001A4602F073F8FB68DA68FB681B6CC3F14C
:102490000003D218FB68DA60FB68DA68FB681B6827
:1024A0009A4208D2FB685A68FB681B6CC3F10003B0
:1024B000D218FB68DA607B68022B09D1FB689B6B42
:1024C000002B05D0FB689B6B03F1FF32FB689A631E
:1024D000FB689B6B03F10102FB689A6307F110072D
:1024E000BD4680BD80B582B000AF786039607B6842
:1024F0001B68002B19D07B68DA687B681B6CD218CC
:102500007B68DA607B68DA687B685B689A4203D331
:102510007B681A687B68DA607B68DA687B681B6CAA
:10252000386811461A4602F021F807F10807BD463F
:1025300080BD00BF80B582B000AF7860FFF7B4FC0B
:1025400014E07B685B6A002B15D07B6803F12403E1
:10255000184600F083FC0346002B01D000F044FD38
:102560007B689B6C03F1FF327B689A647B689B6C91
:10257000002BE6DC00E000BF7B684FF0FF329A647E
:10258000FFF7A8FCFFF790FC14E07B681B69002BA9
:1025900015D07B6803F11003184600F05FFC03467A
:1025A000002B01D000F020FD7B685B6C03F1FF3253
:1025B0007B685A647B685B6C002BE6DC00E000BF44
:1025C0007B684FF0FF325A64FFF784FC07F108077D
:1025D000BD4680BD80B584B000AF7860FFF764FC75
:1025E0007B689B6B002B03D14FF00103FB6002E083
:1025F0004FF00003FB60FFF76DFCFB68184607F126
:102600001007BD4680BD00BF80B584B000AF7860C4
:10261000FFF74AFC7B689A6B7B68DB6B9A4203D1BD
:102620004FF00103FB6002E04FF00003FB60FFF797
:1026300051FCFB68184607F11007BD4680BD00BF7E
:1026400080B584B000AF786039607B68FB60FFF7CD
:102650002BFCFB685B6CB3F1FF3F03D1FB684FF0D1
:1026600000025A64FB689B6CB3F1FF3F03D1FB6827
:102670004FF000029A64FFF72DFCFB689B6B002B68
:1026800006D1FB6803F124031846396800F0BCFB4F
:10269000F868FFF74FFF07F11007BD4680BD00BF88
:1026A00080B58AB002AFF860B9603B601346FB802A
:1026B000FB881846396B00F0E3FDB861BB69002B5D
:1026C00000F09480BB691A6BFB8803F1FF334FEA7B
:1026D0008303D3187B617B6923F007037B61FB884D
:1026E0000093B869B968BA6A7B6B00F093FC7869AB
:1026F000F9683A68FFF754FB0246BB691A60FB6A47
:10270000002B02D0FB6ABA691A60FFF7CDFB42F2D8
:102710008843C2F200031B6803F1010242F28843BE
:10272000C2F200031A6042F2D833C2F200031B68FF
:10273000002B0FD142F2D833C2F20003BA691A60FB
:1027400042F28843C2F200031B68012B18D100F04B
:10275000B1FC15E042F29443C2F200031B68002B67
:102760000ED142F2D833C2F200031B68DA6ABB6AA8
:102770009A4205D842F2D833C2F20003BA691A600D
:1027800042F2A843C2F200031B6803F1010242F2C5
:10279000A843C2F200031A60BB69DA6A42F29043AE
:1027A000C2F200031B689A4206D9BB69DA6A42F298
:1027B0009043C2F200031A60BB69DA6A13464FEA1B
:1027C00083039B184FEA830342F2DC32C2F2000219
:1027D0009A18BB6903F1040310461946FFF756FA2D
:1027E0004FF00103FB61FFF775FB02E04FF0FF3391
:1027F000FB61FB69012B11D142F29443C2F2000349
:102800001B68002B0AD042F2D833C2F200031B68C7
:10281000DA6ABB6A9A4201D2FFF736FBFB691846B7
:1028200007F12007BD4680BD80B584B000AF786059
:102830004FF00003FB607B68002B19D000F060F8BC
:1028400042F28C43C2F200031A687B68D318BB6063
:1028500042F2D833C2F200031B6803F104031846A6
:10286000FFF772FAB86800F0C5FC00F05BF8F8609A
:10287000FB68002B01D1FFF707FB07F11007BD46EE
:1028800080BD00BF80B586B004AF4FF00003009359
:102890004FF0000301934FF0000302934FF0000349
:1028A000039343F20100C0F2000044F2F461C0F26D
:1028B00000014FF08C024FF00003FFF7F1FE78604B
:1028C0007B68012B02D100F013FE78607B68012B3E
:1028D00011D1FFF719FB42F29443C2F200034FF00B
:1028E00001021A6042F28C43C2F200034FF0000270
:1028F0001A60FFF79FFA07F10807BD4680BD00BFC9
:1029000080B400AF42F29843C2F200031B6803F1A7
:10291000010242F29843C2F200031A60BD4680BC35
:10292000704700BF80B584B000AF4FF00003FB607C
:102930004FF00003BB60FFF7B7FA42F29843C2F2D0
:1029400000031B6803F1FF3242F29843C2F2000316
:102950001A6042F29843C2F200031B68002B40F059
:102960008D8042F28843C2F200031B68002B00F006
:10297000858043E042F24843C2F20003DB68DB6833
:102980007B607B6803F118031846FFF7DDF97B686D
:1029900003F104031846FFF7D7F97B68DA6A42F2BD
:1029A0009043C2F200031B689A4206D97B68DA6A38
:1029B00042F29043C2F200031A607B68DA6A13465F
:1029C0004FEA83039B184FEA830342F2DC32C2F2E0
:1029D00000029A187B6803F1040310461946FFF7BA
:1029E00055F97B68DA6A42F2D833C2F200031B68F9
:1029F000DB6A9A4202D34FF00103BB6042F24843C4
:102A0000C2F200031B68002BB4D142F29C43C2F215
:102A100000031B68002B1BD013E000F04BF80346AB
:102A2000002B02D04FF00103BB6042F29C43C2F284
:102A300000031B6803F1FF3242F29C43C2F2000321
:102A40001A6042F29C43C2F200031B68002BE4D1DF
:102A5000BB68012B06D042F2A043C2F200031B6800
:102A6000012B0BD14FF00103FB6042F2A043C2F2F5
:102A700000034FF000021A60FFF706FAFFF72AFA88
:102A8000FB68184607F11007BD4680BD80B582B0CF
:102A900000AFFFF709FA42F28C43C2F200031B6851
:102AA0007B60FFF717FA7B68184607F10807BD46F9
:102AB00080BD00BF80B586B000AF4FF000037B61E2
:102AC00042F29843C2F200031B68002B40F0EE80F4
:102AD00042F28C43C2F200031B6803F1010242F28E
:102AE0008C43C2F200031A6042F28C43C2F200032C
:102AF0001B683B613B69002B47D142F24043C2F265
:102B000000031B68FB6042F24443C2F200031A68F0
:102B100042F24043C2F200031A6042F24443C2F25E
:102B20000003FA681A6042F2A443C2F200031B6871
:102B300003F1010242F2A443C2F200031A6042F21E
:102B40004043C2F200031B681B68002B02D14FF008
:102B5000010301E04FF00003002B07D040F2040313
:102B6000C2F200034FF0FF321A600EE042F240431F
:102B7000C2F200031B68DB68DB68BB60BB685A6895
:102B800040F20403C2F200031A6040F20403C2F2EE
:102B900000031B683A699A4270D300E000BF42F21A
:102BA0004043C2F200031B681B68002B02D14FF0A8
:102BB000010301E04FF00003002B07D040F20403B3
:102BC000C2F200034FF0FF321A6057E042F2404376
:102BD000C2F200031B68DB68DB68BB60BB685B6834
:102BE0007B603A697B689A4206D240F20403C2F2E3
:102BF00000037A681A6041E0BB6803F104031846D9
:102C0000FFF7A2F8BB689B6A002B05D0BB6803F1F5
:102C100018031846FFF798F8BB68DA6A42F2904347
:102C2000C2F200031B689A4206D9BB68DA6A42F214
:102C30009043C2F200031A60BB68DA6A13464FEA97
:102C400083039B184FEA830342F2DC32C2F2000294
:102C50009A18BB6803F1040310461946FFF716F8EB
:102C6000BB68DA6A42F2D833C2F200031B68DB6A3F
:102C70009A4293D34FF001037B618FE742F2D8333E
:102C8000C2F200031B68D96A42F2DC32C2F20002CF
:102C90000B464FEA83035B184FEA8303D3181B6884
:102CA000012B0FD94FF001037B610BE042F29C43F3
:102CB000C2F200031B6803F1010242F29C43C2F21C
:102CC00000031A607B69184607F11807BD4680BDEE
:102CD00080B483B000AF42F29843C2F200031B6895
:102CE000002B13D042F2A043C2F200034FF00102C6
:102CF0001A6048E042F29043C2F200031B6803F1FD
:102D0000FF3242F29043C2F200031A6042F2904353
:102D1000C2F20003196842F2DC32C2F200020B4632
:102D20004FEA83035B184FEA8303D3181B68002B19
:102D3000E0D042F29043C2F200031A6813464FEA11
:102D400083039B184FEA830342F2DC32C2F2000293
:102D50009B187B607B685B685A687B685A607B68FD
:102D60005A687B6803F108039A4204D17B685B6868
:102D70005A687B685A607B685B68DA6842F2D833CD
:102D8000C2F200031A6007F10C07BD4680BC704711
:102D900080B584B000AF7860396042F2D833C2F2B7
:102DA00000031B6803F1180378681946FEF792FFC9
:102DB00042F2D833C2F200031B6803F10403184641
:102DC000FEF7C2FF3B68B3F1FF3F0ED142F2D833AA
:102DD000C2F200031B6803F1040342F27440C2F222
:102DE00000001946FEF752FF0AE042F28C43C2F29D
:102DF00000031A683B68D318FB60F86800F0FAF922
:102E000007F11007BD4680BD80B584B000AF786083
:102E1000396042F2D833C2F200031B6803F1180391
:102E200078681946FEF732FF42F2D833C2F2000347
:102E30001B6803F104031846FEF786FF42F28C4339
:102E4000C2F200031A683B68D318FB60F86800F010
:102E5000D1F907F11007BD4680BD00BF80B584B031
:102E600000AF78607B68DB68DB68BB60BB6803F140
:102E700018031846FEF768FF42F29843C2F20003B7
:102E80001B68002B2AD1BB6803F104031846FEF728
:102E90005BFFBB68DA6A42F29043C2F200031B6830
:102EA0009A4206D9BB68DA6A42F29043C2F2000342
:102EB0001A60BB68DA6A13464FEA83039B184FEA2D
:102EC000830342F2DC32C2F200029A18BB6803F1BB
:102ED000040310461946FEF7D9FE09E0BB6803F16A
:102EE000180342F24840C2F200001946FEF7CEFE37
:102EF000BB68DA6A42F2D833C2F200031B68DB6AAD
:102F00009A4203D34FF00103FB6002E04FF000034D
:102F1000FB60FB68184607F11007BD4680BD00BF87
:102F200080B483B000AF786042F2A443C2F20003E1
:102F30001A687B681A6042F28C43C2F200031A6876
:102F40007B685A6007F10C07BD4680BC704700BF24
:102F500080B584B000AF78603960FEF7A5FF42F21B
:102F60008C43C2F200031B68BB603B681B68B3F173
:102F7000FF3F03D14FF00003FB602CE07B681A6831
:102F800042F2A443C2F200031B689A4208D07B6855
:102F90005A68BB689A4203D84FF00103FB601AE0FD
:102FA0007B685B68BA68D21A3B681B689A420FD28A
:102FB0003B681A687B685968BB68CB1AD2183B68B3
:102FC0001A607868FFF7ACFF4FF00003FB6002E087
:102FD0004FF00103FB60FEF77DFFFB68184607F129
:102FE0001007BD4680BD00BF80B400AF42F2A043D1
:102FF000C2F200034FF001021A60BD4680BC704768
:1030000080B582B000AF786000F0A6F8FDF7D4F983
:10301000FAE700BF80B586B000AFF860B9607A60AB
:103020003B604FF000037B6113E0BA687B69D31803
:103030001A78F9687B69CB1803F130031A71BA6802
:103040007B69D3181B78002B07D07B6903F1010340
:103050007B617B69092BE8D900E000BFFB684FF07A
:10306000000283F83D207B68022B02D94FF0020357
:103070007B60FB687A68DA62FB687A681A64FB68CE
:1030800003F104031846FEF7F3FDFB6803F1180390
:103090001846FEF7EDFDFB68FA681A617B68C3F11C
:1030A0000302FB689A61FB68FA685A6207F1180725
:1030B000BD4680BD80B582B000AF4FF000037B609D
:1030C00012E07A6813464FEA83039B184FEA8303A2
:1030D00042F2DC32C2F200029B181846FEF7A8FD4D
:1030E0007B6803F101037B607B68022BE9D942F224
:1030F0001840C2F20000FEF79BFD42F22C40C2F2E3
:103100000000FEF795FD42F24840C2F20000FEF7D3
:103110008FFD42F25C40C2F20000FEF789FD42F2F0
:103120007440C2F20000FEF783FD42F24043C2F257
:10313000000342F21842C2F200021A6042F2444313
:10314000C2F2000342F22C42C2F200021A6007F1FE
:103150000807BD4680BD00BF80B582B000AF3DE02E
:10316000FFF7CEFB42F25C43C2F200031B68002B68
:1031700014BF00230123DBB27B60FFF7D3FB7B6826
:10318000002B2BD1FEF790FE42F25C43C2F200030B
:10319000DB68DB683B603B6803F104031846FEF71D
:1031A000D3FD42F28843C2F200031B6803F1FF32F1
:1031B00042F28843C2F200031A6042F27043C2F244
:1031C00000031B6803F1FF3242F27043C2F20003B6
:1031D0001A60FEF77FFE386800F08AF842F270430A
:1031E000C2F200031B68002BBAD107F10807BD46E5
:1031F00080BD00BF80B582B000AF786042F2D833A6
:10320000C2F200031B687A685A6042F28C43C2F231
:1032100000031B687A689A4210D242F24443C2F219
:1032200000031A6842F2D833C2F200031B6803F1AC
:10323000040310461946FEF74DFD1DE042F24043DF
:10324000C2F200031A6842F2D833C2F200031B68CC
:1032500003F1040310461946FEF73CFD40F2040357
:10326000C2F200031B687A689A4205D240F2040356
:10327000C2F200037A681A6007F10807BD4680BDF4
:1032800080B584B000AF03463960FB804FF0440046
:10329000FEF764FCF860FB68002B23D03B68002B32
:1032A00007D1FB884FEA83031846FEF757FC034615
:1032B00000E03B68FA681363FB681B6B002B06D1C8
:1032C000F868FEF7ABFC4FF00003FB600AE0FB6818
:1032D0001A6BFB884FEA830310464FF0A5011A468C
:1032E00001F04DF9FB68184607F11007BD4680BD97
:1032F00080B582B000AF78607B681B6B1846FEF724
:103300008DFC7868FEF78AFC07F10807BD4680BD92
:1033100080B483B000AF42F2D833C2F200031B681E
:103320007B607B68184607F10C07BD4680BC704780
:1033300080B483B000AF42F29443C2F200031B6832
:10334000002B03D14FF000037B600DE042F2984365
:10335000C2F200031B68002B03D14FF001037B6016
:1033600002E04FF002037B607B68184607F10C0710
:10337000BD4680BC704700BF80B584B000AF7860A8
:103380007B68FB607B68002B66D0FB68DA6A42F2E0
:10339000D833C2F200031B68DB6A9A425CD242F265
:1033A000D833C2F200031B68DB6AC3F10302FB6877
:1033B0009A61FB685969FB68DA6A13464FEA83032E
:1033C0009B184FEA830342F2DC32C2F200029B18E0
:1033D000994202D14FF0010301E04FF00003002BAE
:1033E00032D0FB6803F104031846FEF7ADFC42F24D
:1033F000D833C2F200031B68DA6AFB68DA62FB6842
:10340000DA6A42F29043C2F200031B689A4206D97C
:10341000FB68DA6A42F29043C2F200031A60FB686A
:10342000DA6A13464FEA83039B184FEA830342F29A
:10343000DC32C2F200029A18FB6803F10403104662
:103440001946FEF723FC07E042F2D833C2F200032C
:103450001B68DA6AFB68DA6207F11007BD4680BDB7
:1034600080B584B000AF78607B68FB607B68002B20
:1034700039D0FB68DA6AFB681B6C9A4233D0FB6870
:1034800003F104031846FEF75FFCFB681A6CFB6847
:10349000DA62FB68DB6AC3F10302FB689A61FB68CE
:1034A000DA6A42F29043C2F200031B689A4206D9DC
:1034B000FB68DA6A42F29043C2F200031A60FB68CA
:1034C000DA6A13464FEA83039B184FEA830342F2FA
:1034D000DC32C2F200029A18FB6803F104031046C2
:1034E0001946FEF7D3FB07F11007BD4680BD00BFAC
:1034F00080B586B004AF4FF000037B6000F086FA21
:1035000042F2DC43C2F200031B68002B1AD04FF0DA
:10351000030300934FF0000301934FF00003029365
:103520004FF00003039343F26D60C0F2000044F2D9
:10353000FC61C0F200014FF08C024FF00003FFF776
:10354000AFF878607B68184607F10807BD4680BD74
:1035500080B588B000AFF860B9607A603B604FF02A
:103560000003FB6142F2DC43C2F200031B68002B44
:103570003DD0BB683B617B687B61FB68BB613B689E
:10358000002B25D1FFF7D4FE0346012B0FD142F2C9
:10359000DC43C2F200031A6807F110031046194613
:1035A000BA6A4FF00003FEF789FDF8611FE042F2AE
:1035B000DC43C2F200031A6807F1100310461946F3
:1035C0004FF000024FF00003FEF778FDF8610EE0C7
:1035D00042F2DC43C2F200031A6807F110031046FE
:1035E00019463A684FF00003FEF7FEFDF861FB69EB
:1035F000184607F12007BD4680BD00BF80B586B0E4
:1036000002AF7860396042F2D443C2F200031B6813
:10361000DB68DB68FB60FB6803F104031846FEF718
:1036200093FBFB68DB69012B18D1FB689A697B6807
:10363000D318F86819463A687B6800F0B9F8034671
:10364000012B0BD14FF000030093F8684FF00001FD
:103650007A684FF00003FFF77BFFB860FB685B6A96
:10366000F868984707F11007BD4680BD80B584B063
:1036700000AF786007F10803184600F043F8F860DF
:10368000BB68F868194600F003F800F0DBF8F1E7D2
:1036900080B584B000AF78603960FFF731F907F189
:1036A0000803184600F058F8F860BB68002B21D1D9
:1036B0003B68002B0AD17A68FB689A4206D8FFF76C
:1036C00031F97868F968FFF799FF17E042F2DC43B7
:1036D000C2F200031A687968FB68CB1A10461946D3
:1036E000FEF7AEFFFFF71EF90346002B05D1FEF7EC
:1036F000CBFB02E0FFF716F900E000BF07F110076F
:10370000BD4680BD80B485B000AF786042F2D4433E
:10371000C2F200031B681B68002B14BF00230123A7
:10372000DBB21A467B681A607B681B68002B08D1E5
:1037300042F2D443C2F200031B68DB681B68FB60E3
:1037400002E04FF00003FB60FB68184607F1140726
:10375000BD4680BC704700BF80B584B000AF7860C4
:10376000FFF794F9F86042F2E043C2F200031B68ED
:10377000FA689A420CD242F2E043C2F200031B689C
:10378000184600F0D5F87B684FF001021A6003E09C
:103790007B684FF000021A6042F2E043C2F200037D
:1037A000FA681A60FB68184607F11007BD4680BD2D
:1037B00080B586B000AFF860B9607A603B604FF0CA
:1037C00000037B61FB68BA685A60FB68FA681A619B
:1037D000BA687B689A4217D87A683B68D21AFB6845
:1037E0009B699A4203D34FF001037B6124E042F2CC
:1037F000D843C2F200031A68FB6803F104031046C1
:103800001946FEF767FA17E07A683B689A4207D2D2
:10381000BA683B689A4203D34FF001037B610BE027
:1038200042F2D443C2F200031A68FB6803F10403B6
:1038300010461946FEF74EFA7B69184607F118073D
:10384000BD4680BD80B58AB002AF5AE03B69FB61DE
:10385000FB695B69002B05D0FB6903F10403184683
:10386000FEF772FA07F104031846FFF775FFB86117
:10387000BB68032B42D801A252F823F08D38000018
:10388000FD380000D9380000F5380000FA68FB69FF
:103890009B69D218FB68F8691146BA69FFF788FF7F
:1038A0000346012B2CD1FB695B6AF8699847FB69D9
:1038B000DB69012B24D1FA68FB699B69D3184FF0AF
:1038C00000020092F8694FF000011A464FF0000321
:1038D000FFF73EFE786113E0FA68FB699A61FB69C5
:1038E0009A69BB69D318F8691946BA69BB69FFF7C9
:1038F0005FFF06E0F869FEF791F902E000BF00E023
:1039000000BF42F2DC43C2F200031A6807F1080369
:10391000104619464FF000024FF00003FEF7AEFCD0
:103920000346002B92D107F12007BD4680BD00BFA2
:1039300080B58AB002AF786045E042F2D443C2F26B
:1039400000031B68DB681B68FB6142F2D443C2F2D0
:1039500000031B68DB68DB68BB61BB6903F1040320
:103960001846FEF7F1F9BB695B6AB8699847BB690D
:10397000DB69012B27D1BB699A69FB69D3187B618D
:103980007A69FB699A4212D9BB697A695A60BB6944
:10399000BA691A6142F2D443C2F200031A68BB69E1
:1039A00003F1040310461946FEF794F90BE04FF0BB
:1039B00000030093B8694FF00001FA694FF000036B
:1039C000FFF7C6FD386142F2D443C2F200031B6820
:1039D0001B68002BB1D142F2D443C2F200031B6832
:1039E000FB6042F2D843C2F200031A6842F2D443A9
:1039F000C2F200031A6042F2D843C2F20003FA682E
:103A00001A6007F12007BD4680BD00BF80B500AF3A
:103A1000FEF74AFA42F2DC43C2F200031B68002BB5
:103A20002BD142F2AC40C2F20000FEF701F942F2A3
:103A3000C040C2F20000FEF7FBF842F2D443C2F2EB
:103A4000000342F2AC42C2F200021A6042F2D843D2
:103A5000C2F2000342F2C042C2F200021A604FF00A
:103A60000A004FF00C014FF00002FEF7E9FA02469F
:103A700042F2DC43C2F200031A60FEF72BFA80BD6B
:103A800080B483B000AF0346FB71FB79002B07D0F5
:103A90004FF42043C4F208034FF001021A6606E017
:103AA0004FF42043C4F208034FF000021A6607F1F6
:103AB0000C07BD4680BC704780B483B000AF78600F
:103AC00000BF4FF42043C4F208035A6E7B681340D2
:103AD000002BF6D107F10C07BD4680BC704700BF34
:103AE00080B500AF4FF007004FF46041C5F20F0101
:103AF0004FF00002FDF7C8FD4FF006004FF46041A3
:103B0000CFF20F014FF00002FDF7BEFD4FF00500B0
:103B10004FF46041CFF20F014FF00002FDF7B4FD0A
:103B20004FF004004FF46041CFF20F014FF000025C
:103B3000FDF7AAFD4FF003004FF46041CFF20F01F3
:103B40004FF00002FDF7A0FD4FF002004FF460417E
:103B5000CFF20F014FF00002FDF796FD4FF001008C
:103B60004FF46041CFF20F014FF00002FDF78CFDE2
:103B70004FF000004FF020414FF00002FDF784FDB0
:103B80004FF007004FF007014FF00002FDF782FEF3
:103B90004FF006004FF007014FF00002FDF77AFEEC
:103BA0004FF005004FF007014FF00002FDF772FEE5
:103BB0004FF004004FF007014FF00002FDF76AFEDE
:103BC0004FF003004FF007014FF00002FDF762FED7
:103BD0004FF002004FF007014FF00002FDF75AFED0
:103BE0004FF001004FF007014FF00002FDF752FEC9
:103BF00000BF80BD80B58AB000AF7860786800F003
:103C0000C6FC0346BB614FF000033B624FF0FF3040
:103C1000FFF752FF4FF00100FFF732FFFFF760FFA1
:103C20004FF000033B625BE03A6ABB699A4203DAF9
:103C30007B681B787B6202E04FF020037B627B6A2B
:103C4000A3F120037B6244F62403C0F200037A6AE6
:103C500033F81230FB824FF00003FB6135E044F291
:103C60000472C0F20002396A0B464FEAC3035B1AC2
:103C70004FEA8303D218FB69D31803F108039B7939
:103C80003B6144F20472C0F20002396A0B464FEA0B
:103C9000C3035B1A4FEA8303F9695B18D3181B78D7
:103CA000FB60FA8AFB6942FA03F303F00103002B7D
:103CB00007D0FA683B69104619464FF00102FDF73C
:103CC000B9FBFB6903F10103FB61FB690D2BC6DD49
:103CD0007B6803F101037B603B6A03F101033B62F4
:103CE0003B6A062BA0DD4FF00000FFF7C9FE07F18D
:103CF0002807BD4680BD00BF80B400AF72B640F259
:103D0000A403C2F200031B68B3F1FF3F0BD040F2E3
:103D1000A403C2F200031B6803F1010240F2A403F2
:103D2000C2F200031A6040F2A403C2F200031B684F
:103D30001846BD4680BC704780B483B000AF40F2E7
:103D4000A403C2F200031B68002B17D040F2A403A7
:103D5000C2F200031B6803F1FF3240F2A403C2F277
:103D600000031A6040F2A403C2F200031B687B60E8
:103D70007B68002B00D162B67B6801E04FF0000346
:103D8000184607F10C07BD4680BC704780B400AFF1
:103D90004FF46D43CEF200034FF46D42CEF20002B9
:103DA000126922F004021A6130BFBD4680BC704720
:103DB00080B582B000AFFFF79FFF00F019F803460F
:103DC000FB71FB79002B07D0FB79032B04D8FB791F
:103DD000184600F03FF802E04FF00003FB71FFF7D8
:103DE000ABFFFB79184607F10807BD4680BD00BF51
:103DF00080B483B000AF4FF00003FB7142F2EC439C
:103E0000C2F200031B78002B16D14FF00103FB71A7
:103E100042F2EC43C2F200035B78002B0CD14FF06E
:103E20000203FB7142F2EC43C2F200039B78002BC9
:103E300002D14FF00303FB71FB79032B02D94FF042
:103E40000303FB71FB79184607F10C07BD4680BCE4
:103E5000704700BF80B582B000AF0346FB71FB79AD
:103E6000002B02D0FB79042B07D944F6DC00C0F20A
:103E700000004FF4C271FCF727FC42F2E443C2F2A7
:103E800000031B68002B07D042F2E443C2F2000398
:103E90001B68FA7910469847FB7903F1FF33032B2F
:103EA0001AD801A252F823F0B93E0000BF3E00002C
:103EB000C93E0000D33E0000FFF768FF0DE04FF061
:103EC0000100FDF70FF908E04FF00100FDF73CF9A4
:103ED00003E0FDF783F900E000BF42F2E843C2F2DD
:103EE00000031B68002B07D042F2E843C2F2000334
:103EF0001B68FA791046984707F10807BD4680BD50
:103F0000074880470749084A084B9B1A40F3058039
:103F1000043BC858D0503FF7FBAF054800470000AE
:103F20003541000064490000000000207C000020B2
:103F300055010000FEE7FEE7FEE7FEE7FEE7FEE7CD
:103F4000FEE7FEE7FEE7FEE7FEE7FEE7FEE7FEE749
:103F5000FEE7FEE7FEE7FEE7FEE7FEE7FEE7FEE739
:103F6000FEE7FEE7FEE7FEE7FEE7FEE7FEE7FEE729
:103F7000FEE7FEE7FEE7FEE7FEE7FEE7FEE7FEE719
:103F8000FEE7FEE7FEE7FEE7FEE7FEE7FEE7FEE709
:103F9000FEE7FEE7FEE700BF80B400AF48F2B013D3
:103FA000C0F6E073DB6C4FEA1363DBB21846BD4624
:103FB00080BC704780B582B000AF00F027F8786011
:103FC0004FF40043C4F20C031B6803F4E0334FEAE0
:103FD000933303F101037A68B2FBF3F37B604FF490
:103FE0000043C4F20C035B6803F00F037A6822FA03
:103FF00003F37B6042F2FC43C2F200037A681A606A
:104000007B68184607F10807BD4680BD80B582B0C1
:1040100000AF4FF40043C4F20C03DB6A03F47053A7
:10402000B3F5805F0DD0B3F5005F03D0B3F5006F3B
:104030000BD011E040F20C03C2F200031B687B605E
:1040400066E04FF400437B6062E040F20803C2F296
:1040500000031B687B605BE04FF40043C4F20C0379
:10406000DB6803F4E063B3F5007F24D0B3F5007F91
:1040700005D8002B36D0B3F5807F22D043E0B3F5CE
:10408000806F0CD0B3F5A06F03D0B3F5407F0CD098
:1040900039E04FF47C53C0F2AB137B6037E046F657
:1040A0004073C0F240137B6031E049F68073C0F288
:1040B000D5037B602BE04DF6C003C0F2A7037B6005
:1040C00025E0FFF769FF0346122B05D94BF2405359
:1040D000C0F264037B601AE04CF6C073C0F26A035E
:1040E0007B6014E0FFF758FF0346122B05D94FF40D
:1040F0009F43C0F212037B6009E044F24023C0F208
:104100000F037B6003E04FF000037B6000BF00BF44
:104110007B68184607F10807BD4680BD80B400AF34
:1041200040F20803C2F200031B681846BD4680BC7B
:10413000704700BF80B400AFBD4680BC704700BF71
:1041400080B582B000AF03463960FB71FB79052B67
:1041500002D83B680F2B07D944F6F000C0F20000EC
:1041600040F2DF11FCF7B0FA4FF4C042C4F2000293
:10417000F9793B684FF0010000FA03F318460B464B
:104180004FEAC3035B184FEA8303D31803F110030C
:10419000586007F10807BD4680BD00BF80B582B0FA
:1041A00000AF03463960FB71FB79052B02D83B68F1
:1041B0000F2B07D944F6F000C0F2000040F20B21AB
:1041C000FCF782FA4FF4C042C4F20002F9793B686E
:1041D0004FF0010000FA03F318460B464FEAC30301
:1041E0005B184FEA8303D31803F11003186007F13B
:1041F0000807BD4680BD00BF80B582B000AF48F261
:104200001010C0F202004FF00101FCF759FD4FF40D
:104210005240C0F202004FF00101FCF751FD4FF097
:1042200000037B601BE044F64013C0F200037A6891
:1042300013F8321044F64012C0F200027B684FEAD5
:10424000C303D3185B68084619464FF004024FF0C9
:104250000003FCF7F3FF7B6803F101037B607B68DD
:10426000012BE0DD4FF00003184607F10807BD46BB
:1042700080BD00BF80B584B000AF78604FF0000310
:10428000FB604FF00103BB6035E07A68BB68134008
:10429000002B14D044F64013C0F20003FA6813F860
:1042A000321044F64012C0F20002FB684FEAC3032A
:1042B000D3185B6808461946FFF770FF13E044F611
:1042C0004013C0F20003FA6813F8321044F64012AB
:1042D000C0F20002FB684FEAC303D3185B680846CC
:1042E0001946FFF72DFFFB6803F10103FB60BB6874
:1042F0004FEA4303BB60FB68012BC6DD4FF00003B0
:10430000184607F11007BD4680BD00BF80B582B0DA
:1043100000AF78607B68002B19DB7B68012B16DC13
:1043200044F64013C0F200037A6813F8321044F6E2
:104330004012C0F200027B684FEAC303D3185B68E7
:1043400008461946FFF72AFF4FF0000301E04FF03F
:10435000FF33184607F10807BD4680BD80B400AFA3
:104360004FF40043C4F20C034FF40042C4F20C02B9
:10437000526C42F400525A644FF4C043C4F200033A
:104380004FF4C042C4F20002D2F8202142F00402ED
:10439000C3F820214FF4C043C4F200034FF4C042DD
:1043A000C4F20002D2F8202122F44072C3F8202186
:1043B0004FF4C043C4F200034FF4C042C4F2000201
:1043C000D2F8B82022F47062C3F8B8204FF4C0438A
:1043D000C4F200034FF4C042C4F20002D2F8B82085
:1043E00042F48062C3F8B8204FF40043C4F20C03D7
:1043F0004FF010021A6200BF4FF40043C4F20C03E6
:10440000DB6A03F02003002BF6D04EF6F053CEF219
:1044100000034EF6F052CEF20002D26842F08072F3
:10442000DA604FF48053CEF2000341F2FF32C4F25F
:1044300001021A604FF00003CEF204034FF00F02A6
:104440001A614FF00003CEF204034FF00202C3F8EA
:10445000F0204FF00003CEF204034FF48072C3F853
:1044600004234FF060424CF65563CCF2AC53C2F8D3
:10447000B03F4FF060424FF00903C0F20103C2F8B1
:10448000803EBD4680BC704780B582B000AF4FF023
:104490007E637B607B681B68002B02D14FF00003BA
:1044A00003E0FFF75BFF4FF00103184607F1080731
:1044B000BD4680BD10B5034C14B1AFF3008010BDF4
:1044C000204610BD0000000008B5084B04461BB193
:1044D0000021AFF3008001E000F00CF80448006810
:1044E000816A01B18847204600F05AF800000000B8
:1044F0005449000070B5084B084C0025E01A8410A0
:1045000003EB8406043D1CB172599047013CF9E766
:10451000BDE8704000F04CB8780000207C0000201E
:1045200038B50E4D0E4B0024E81A8510AC4205D06C
:104530000B4951F8242090470134F7E700F032F896
:104540000849094A541AA5100024AC4205D0054B6D
:1045500053F8240080470134F7E738BD7400002089
:1045600074000020740000207800002010B50023A3
:10457000934203D0CC5CC4540133F9E710BD8218D8
:104580000346934202D003F8011BFAE77047034643
:1045900013F8012B002AFBD1181A013870470000CC
:1045A000FEE700BFF8B500BFF8BC08BC9E467047E8
:1045B000F8B500BFF8BC08BC9E467047433A5C5350
:1045C000696C69636F6E4C6162735C53696D706C8A
:1045D000696369747953747564696F5C76325C647D
:1045E0006576656C6F7065725C73646B735C656631
:1045F0006D33325C76322F656D6C69622F696E6344
:104600002F656D5F62757274632E68000101000092
:104610000030000001000000000000000100000068
:104620005075744F6E4C6364000000005072696EE8
:10463000744C63645468726561640000433A5C536F
:10464000696C69636F6E4C6162735C53696D706C09
:10465000696369747953747564696F5C76325C64FC
:104660006576656C6F7065725C73646B735C6566B0
:104670006D33325C76322F656D6C69622F696E63C3
:104680002F656D5F62757274632E68002E2E2F6524
:104690006D6C69622F656D5F62757274632E630065
:1046A0002E2E2F656D6C69622F656D5F636D752EA3
:1046B000630000002E2E2F656D6C69622F656D5FA3
:1046C0006770696F2E6300002E2E2F656D6C696216
:1046D0002F656D5F6C63642E630000002E2E2F65C6
:1046E0006D6C69622F656D5F73797374656D2E6390
:1046F0000000000049444C4500000000546D722049
:104700005376630001010507070304020302040650
:1047100005060D0E0E0E0D0D0D0D0E0E0E0E0D0DD1
:1047200001010507070304020302040605060F1032
:1047300010100F0F0F0F101010100F0F01010507B1
:1047400007030402030204060506111212121111D6
:1047500011111212121211110101050707030402AF
:10476000030204060506131C1C1C131313131C1C44
:104770001C1C1313000105070602030103020406B3
:1047800004051D1E1E1E1D1D1D1D1E1E1E1E1D1D83
:1047900000010507060203010302040604051F20A9
:1047A00020201F1F1F1F202020201F1F0101050781
:1047B0000703040203020406050621222222212106
:1047C000212122222222212107050201030604239E
:1047D000232323232323070502010306042424247F
:1047E0002424242407050201030604252525252564
:1047F0002525070502010306042626262626262649
:1048000000010702062727272727000000000000D5
:104810000000131211100F0E0D0C000000002125D6
:1048200024260000000000118002000000000206A3
:104830000000200039000F00000040150020400457
:10484000001000223F0006005B044F0466046D0464
:104850007D0407007F046F0400000000000A0000D0
:1048600080200000FFFF7704790A3900B02079002A
:1048700071007D04760406000E00700A3800B6024E
:10488000B6083F0073043F08730C6D0401113E002D
:1048900030223628802A6E040922390080080F0051
:1048A00001000800000158107C0458005E045820E4
:1048B00071040C0C740404000E00700C38005414C5
:1048C00054045C04730467045004080C78001C0052
:1048D00010201428802A0C08482000002E2E2F4477
:1048E0007269766572732F736C6565702E63000054
:1048F000433A5C53696C69636F6E4C6162735C53DD
:10490000696D706C696369747953747564696F5CFF
:1049100076325C646576656C6F7065725C73646B2F
:10492000735C65666D33325C76322F656D6C6962DF
:104930002F696E632F656D5F6770696F2E68000069
:10494000040000000200000004000000030000005A
:0C495000430000001000002000000000E8
:08495C00F8B7FF7F0100000025
:10496400AAAAAAAAFFFFFFFF006CDC0200800000D5
:104974000000000000000000000000000000000033
:104984000000000000000000000000000000000023
:10499400504900000000000000000000000000007A
:1049A4000000000000000000000000000000000003
:1049B40000000000000000000000000000000000F3
:1049C40000000000000000000000000000000000E3
:0C49D400000000002501000001010000AF
:0400000300003F01B9
:00000001FF
